:100000000C9446010C9467010C9467010C946701F1
:100010000C9467010C9467010C9467010C946701C0
:100020000C9467010C9467010C9467010C946701B0
:100030000C9467010C9467010C9467010C946701A0
:100040000C9467010C9467010C9467010C94670190
:100050000C9467010C9467010C9467010C94640381
:100060000C9467010C9467010C9467010C94670170
:100070000C9467010C9467010C9467010C94670160
:100080000C9443040C9467010C9467010C94670171
:100090000C9467010C9467010C9467010C94670140
:1000A0000C9467010C9467010C9467010C94670130
:1000B0000C9467010C9467010C9467010C94670120
:1000C0000C9467010C9467010C9467010C94670110
:1000D0000C9467010C9467010C9467010C94670100
:1000E0000C9467010C9487010C94C7010C9437039E
:1000F0000C94E6020C9414030C94F0020C94C502C8
:100100000C94A2010C94BA010C9495010C949C01DE
:100110000C9400030C94CD020C94A6010C948D0158
:100120000C941E030C942D030C94F8020C940A03F7
:100130000C94DC020C944B030C94CC010C94B00195
:100140000C9441030C94BE010C94AC010C94C201BC
:100150000C945F030C9491010C94C8010C9455030A
:100160000C9499010C94B4010C94D202000021006B
:10017000240027002A002D00300033000101000078
:10018000040107010A0100002200250028002B00BD
:100190002E003100340002010000050108010B01AE
:1001A000000020002300260029002C002F00320030
:1001B0000001000003010601090105050505070509
:1001C00008080808020202020A0A080804040404D3
:1001D00001010101010101010303030303030303FF
:1001E000040707070C0C0C0C0C0C0C0C020202028E
:1001F00006060606060606060B0B0B0B0B0B0B0B77
:100200000102102020080810204010204080020128
:10021000020108040201010204081020408080400D
:10022000201008040201800402018040201008040C
:1002300002010804020101020408102040800102AA
:1002400004081020408000000A0B02090C0D0E0863
:10025000070304010000000000000000000000008F
:10026000000000000000000000000000000000008E
:10027000000012111000000000000000000000004B
:1002800000000000000000000000000011241FBE5C
:10029000CFEFD1E2DEBFCDBF00E00CBF12E0A0E0A7
:1002A000B2E0E8E6FAE000E00BBF02C007900D9272
:1002B000A030B107D9F722E0A0E0B2E001C01D9262
:1002C000AF30B207E1F70E94AF040C9432050C94F2
:1002D00000008150823108F05AC0E82FF0E08827F2
:1002E000EB58FE4F8F4F0C942A0595019901870119
:1002F0008D019101C7019C01A201A601AC01B001D1
:10030000B401BA01BE01C701C201C801CC0180918C
:1003100080008F77809380000895809180008F7D8A
:10032000F9CF80918000877FF5CF84B58F7784BD2A
:10033000089584B58F7DFBCF8091B0008F77809337
:10034000B00008958091B0008F7DF9CF809190002A
:100350008F77809390000895809190008F7DF9CFE2
:1003600080919000877FF5CF8091A0008F77809358
:10037000A00008958091A0008F7DF9CF8091A0000A
:10038000877FF5CF809120018F778093200108959A
:10039000809120018F7DF9CF80912001877FF5CF5B
:1003A000CF93DF93282F30E0F901EA5BFD4F849172
:1003B000F901E050FE4FD491F901E654FE4FC4918B
:1003C000CC23A1F081110E946901EC2FF0E0EE0F27
:1003D000FF1FE056FE4FA591B491EC91ED2381E013
:1003E00090E009F480E0DF91CF91089580E090E003
:1003F000FACF1F93CF93DF93282F30E0F901EA5B08
:10040000FD4F8491F901E050FE4FD491F901E6547B
:10041000FE4FC491CC23A9F0162F81110E946901CF
:10042000EC2FF0E0EE0FFF1FEA57FE4FA591B491BD
:100430008FB7F894EC91111108C0D095DE23DC93AE
:100440008FBFDF91CF911F910895DE2BF8CFFF92E0
:100450000F931F93CF93DF93082F162FF42EC22FE5
:10046000D8E06C2FF11015C06170802F0E94F90147
:10047000C69561E0812F0E94F90160E0812F0E9402
:10048000F901D15071F7DF91CF911F910F91FF903A
:100490000895661F6627661F802F0E94F901CC0F02
:1004A000E8CFCF93DF9390E0FC01E050FE4F249122
:1004B00086549E4FFC0184918823C9F090E0880FF8
:1004C000991FFC01E459FE4FA591B491FC01EA5734
:1004D000FE4FC591D49161110DC09FB7F8948C91D6
:1004E000209582238C938881282328839FBFDF91C6
:1004F000CF910895623051F49FB7F8943C91822FC8
:10050000809583238C93E8812E2BEFCF8FB7F894BF
:10051000EC912E2B2C938FBFEACF1F93CF93DF93B9
:10052000182FEB0161E00E945102209739F460E03E
:10053000812FDF91CF911F910C94F901CF3FD1050D
:1005400011F461E0F5CFE12FF0E0EA5BFD4FE491BB
:10055000E150E23108F0B3C0F0E08827ED54FD4FE0
:100560008F4F0C942A05C502CD02D202DC02E602AE
:100570005F03F002F80200030A0314031E032D03B5
:1005800037035F0341034B03550384B5806884BD83
:10059000C7BDDF91CF911F91089584B5806284BD5E
:1005A000C8BDF7CF80918000806880938000D09391
:1005B0008900C0938800EDCF809180008062809395
:1005C0008000D0938B00C0938A00E3CF809180009D
:1005D000886080938000D0938D00C0938C00D9CF29
:1005E0008091B00080688093B000C093B300D1CFF9
:1005F0008091B00080628093B000C093B400C9CFF6
:1006000080919000806880939000D0939900C0936F
:100610009800BFCF80919000806280939000D0932B
:100620009B00C0939A00B5CF809190008860809322
:100630009000D0939D00C0939C00ABCF8091A00010
:1006400080688093A0008091A0008F7B8093A000A1
:10065000D093A900C093A8009CCF8091A000806295
:100660008093A000D093AB00C093AA0092CF80915A
:10067000A00088608093A000D093AD00C093AC0030
:1006800088CF80912001806880932001D093290138
:10069000C09328017ECF8091200180628093200149
:1006A000D0932B01C0932A0174CF809120018860E0
:1006B00080932001D0932D01C0932C016ACFC038C4
:1006C000D1050CF03ECF33CF1F920F920FB60F9291
:1006D00011242F933F938F939F93AF93BF93809158
:1006E000050290910602A0910702B0910802309194
:1006F000040223E0230F2D3758F50196A11DB11DEB
:10070000209304028093050290930602A0930702AF
:10071000B09308028091000290910102A091020220
:10072000B09103020196A11DB11D80930002909328
:100730000102A0930202B0930302BF91AF919F9177
:100740008F913F912F910F900FBE0F901F90189592
:1007500026E8230F0296A11DB11DD2CF60E087E3EA
:100760000E94510260E088E30E94510260E081E152
:100770000E94510260E082E10E94510260E083E148
:100780000E94510260E088E20E94510260E08AE229
:100790000E94510261E084E10E94510260E084E124
:1007A0000E94F90160E08AE10E94510261E08BE061
:1007B0000E94510261E087E00E94510261E086E000
:1007C0000E94510261E086E10E94510261E087E1EE
:1007D0000E94510261E088E10E94510261E089E1DA
:1007E0000E945102E1EAF0E08081887F816080838D
:1007F000109290008BE08093910089EF90E09093AD
:1008000099008093980082E080937100089560E0E1
:1008100086E10E94F90120E041E068E189E10E945F
:10082000270220E041E068E189E10E94270261E0BF
:1008300086E10E94F90160E087E10E94F90120E071
:1008400041E068E189E10E94270261E087E10C94C0
:10085000F90164E670E086E00E948D0260E087E0C6
:100860000C94F90160E086E00E94F90164E670E012
:1008700087E00C948D0261E086E00E94F90161E05E
:1008800087E00C94F9011F920F920FB60F9211247A
:100890000BB60F922F933F934F935F936F937F937A
:1008A0008F939F93AF93BF93EF93FF938091090230
:1008B00090910A0286309105C0F4019690930A0245
:1008C00080930902FF91EF91BF91AF919F918F911A
:1008D0007F916F915F914F913F912F910F900BBE40
:1008E0000F900FBE0F901F90189510920A02109251
:1008F000090282E10E94D00190930E0280930D02C2
:1009000081E10E94D00190930C0280930B02DACF18
:100910000E94AE030E94070482E10E94D0019093DE
:100920000E0280930D0281E10E94D00190930C028F
:1009300080930B02089580910B0290910C022091FC
:100940000D0230910E02232B31F4019711F40C9417
:100950003B040C9432040197D1F70C942904789449
:1009600084B5826084BD84B5816084BD85B58260B4
:1009700085BD85B5816085BD80916E008160809365
:100980006E001092810080918100826080938100CE
:1009900080918100816080938100809180008160DE
:1009A000809380008091B10084608093B100809139
:1009B000B00081608093B00080919100826080934C
:1009C00091008091910081608093910080919000CE
:1009D0008160809390008091A10082608093A1004B
:1009E0008091A10081608093A1008091A00081602E
:1009F0008093A000809121018260809321018091E9
:100A00002101816080932101809120018160809388
:100A1000200180917A00846080937A0080917A002E
:100A2000826080937A0080917A00816080937A005E
:100A300080917A00806880937A001092C1000E94B1
:100A40008804C0E0D0E00E949B042097E1F30E945C
:100A50000000F9CFEE0FFF1F881F8BBF0790F691A4
:080A6000E02D1994F894FFCF7A
:00000001FF
