:100000000C9425010C9446010C9446010C94460175
:100010000C9446010C9446010C9446010C94460144
:100020000C9446010C9446010C9446010C94460134
:100030000C9446010C949E030C9446010C944601CA
:100040000C9446010C9446010C9446010C94460114
:100050000C9446010C9446010C9446010C94ED025C
:100060000C9446010C9446010C9446010C944601F4
:100070000C9446010C9446010C9446010C944601E4
:100080000C9470090C9446010C9446010C944601A2
:100090000C9446010C9446010C9446010C944601C4
:1000A0000C9446010C9446010C9446010C944601B4
:1000B0000C9446010C9446010C9446010C944601A4
:1000C0000C9446010C9446010C9446010C94460194
:1000D0000C9446010C9446010C9446010C94460184
:1000E0000C9446010C948B010C948F010C94A1018B
:1000F0000C94A7010C9474010C9481010C9485015B
:100100000C94AB010C9493010C9499010C946C0128
:100110000C9466010C94A6010C9470010C949D0142
:100120000C9478010C947B0102000021002400272C
:10013000002A002D003000330001010000040107F7
:10014000010A0100002200250028002B002E0031AA
:1001500000340002010000050108010B010000202D
:10016000002300260029002C002F0032000001008F
:100170000003010601090105050505070508080832
:1001800008020202020A0A08080404040401010128
:100190000101010101030303030303030304070730
:1001A000070C0C0C0C0C0C0C0C02020202060606CE
:1001B00006060606060B0B0B0B0B0B0B0B010210B6
:1001C0002020080810204010204080020102010871
:1001D0000402010102040810204080804020100821
:1001E000040201800402018040201008040201087A
:1001F00004020101020408102040800102040810DA
:1002000020408000000A0B02090C0D0E08070304B1
:1002100001000000000000000000000000000000DD
:1002200000000000000000000000000000000012BC
:10023000111000000000000000000000000000009D
:100240000000000000000000000011241FBECFEFDE
:10025000D1E2DEBFCDBF00E00CBF12E0A0E0B2E013
:10026000EEE7FCE100E00BBF02C007900D92A43660
:10027000B107D9F722E0A4E6B2E001C01D92A53C87
:10028000B207E1F70E948B0C0C943D0E0C94000019
:100290008150823108F05AC0E82FF0E08827EC5AEC
:1002A000FE4F8F4F0C94350E7401780166016C017E
:1002B0007001A6017B01810185018B018F019301F2
:1002C00099019D01A601A101A701AB0180918000C8
:1002D0008F77809380000895809180008F7DF9CF83
:1002E00080918000877FF5CF84B58F7784BD089596
:1002F00084B58F7DFBCF8091B0008F778093B00065
:1003000008958091B0008F7DF9CF809190008F7714
:10031000809390000895809190008F7DF9CF809117
:100320009000877FF5CF8091A0008F778093A00009
:1003300008958091A0008F7DF9CF8091A000877FE4
:10034000F5CF809120018F778093200108958091CF
:1003500020018F7DF9CF80912001877FF5CF3FB7B6
:10036000F8948091890290918A02A0918B02B091B9
:100370008C0226B5A89B05C02F3F19F00196A11D40
:10038000B11D3FBFBA2FA92F982F8827BC01CD01DF
:10039000620F711D811D911D42E0660F771F881F3E
:1003A000991F4A95D1F70895CF93DF93282F30E016
:1003B000F901ED5FFD4F8491F901E354FE4FD491B3
:1003C000F901E958FE4FC491CC23A1F081110E949C
:1003D0004801EC2FF0E0EE0FFF1FE35AFE4FA5910E
:1003E000B491EC91ED2381E090E009F480E0DF919D
:1003F000CF91089580E090E0FACF1F93CF93DF93E1
:10040000282F30E0F901ED5FFD4F8491F901E354AD
:10041000FE4FD491F901E958FE4FC491CC23A9F0C5
:10042000162F81110E944801EC2FF0E0EE0FFF1F04
:10043000ED5BFE4FA591B4918FB7F894EC9111113B
:1004400008C0D095DE23DC938FBFDF91CF911F9141
:100450000895DE2BF8CFFF920F931F93CF93DF9376
:10046000082F162FF42EC22FD8E06C2FF11015C0D4
:100470006170802F0E94FD01C69561E0812F0E946E
:10048000FD0160E0812F0E94FD01D15071F7DF91E5
:10049000CF911F910F91FF900895661F6627661FE9
:1004A000802F0E94FD01CC0FE8CFCF93DF9390E027
:1004B000FC01E354FE4F249189589E4FFC01849126
:1004C0008823C9F090E0880F991FFC01E75DFE4F7B
:1004D000A591B491FC01ED5BFE4FC591D4916111E2
:1004E0000DC09FB7F8948C91209582238C938881BE
:1004F000282328839FBFDF91CF910895623051F464
:100500009FB7F8943C91822F809583238C93E88148
:100510002E2BEFCF8FB7F894EC912E2B2C938FBF0F
:10052000EACF863308F0865320917B00982F98708D
:10053000277F922B90937B008770806480937C0050
:1005400080917A00806480937A0080917A0086FDA1
:10055000FCCF809178009091790008958F929F92BE
:10056000AF92BF92CF92DF92EF92FF926B017C012C
:100570000E94AF014B015C01C114D104E104F104FC
:10058000B9F00E94AF01681979098A099B09683E90
:1005900073408105910580F321E0C21AD108E1087A
:1005A000F10888EE880E83E0981EA11CB11CE4CFF0
:1005B000FF90EF90DF90CF90BF90AF909F908F9083
:1005C00008952FB7F894609185027091860280910A
:1005D0008702909188022FBF08951F920F920FB645
:1005E0000F9211242F933F938F939F93AF93BF93B9
:1005F0008091850290918602A0918702B091880235
:100600003091840223E0230F2D3758F50196A11D68
:10061000B11D209384028093850290938602A0935B
:100620008702B09388028091890290918A02A091FA
:100630008B02B0918C020196A11DB11D809389029D
:1006400090938A02A0938B02B0938C02BF91AF91DA
:100650009F918F913F912F910F900FBE0F901F9000
:10066000189526E8230F0296A11DB11DD2CFCF9277
:10067000DF92EF92FF926B017C01C114D104E1047F
:10068000F10441F00E949C0DA70196010E94F40D17
:100690006B017C01C701B601FF90EF90DF90CF9016
:1006A0000895611571058105910511F00C94EB0D0C
:1006B00008959091000289130DC0E8E2F1E0E49101
:1006C0009FEF90930002E230E1F038F4EE2381F0E6
:1006D000E13089F060E00C94FD01E43049F110F163
:1006E000E530C1F7909173009D7F90937300F2CF36
:1006F00010926E00EFCF90916F009D7F90936F00EE
:10070000E9CF909170009D7F9093700091E090935D
:10071000B0009091B100987F94609093B1001092D6
:10072000B300D8CF909171009D7F90937100D2CF8C
:10073000909172009D7F90937200CCCF1F920F9288
:100740000FB60F9211240BB60F922F933F934F9336
:100750005F936F937F938F939F93AF93BF93EF9329
:10076000FF938091800290918102A0918202B091CA
:100770008302892B8A2B8B2BE1F190917F02E091F0
:100780007D02F0917E0280818927808380918002A2
:1007900090918102A0918202B091830218161906ED
:1007A0001A061B069CF48091800290918102A09110
:1007B0008202B09183020197A109B109809380025E
:1007C00090938102A0938202B0938302FF91EF91F4
:1007D000BF91AF919F918F917F916F915F914F9159
:1007E0003F912F910F900BBE0F900FBE0F901F9057
:1007F0001895809100020E945903E8CF4F925F92B2
:100800006F927F928F929F92AF92BF92CF92DF9220
:10081000EF92FF920F931F93CF93DF9300D01F921D
:100820001F92CDB7DEB78B0129013A0190910002EA
:100830008917C9F09F3F09F491C00F900F900F9056
:100840000F900F90DF91CF911F910F91FF90EF903C
:10085000DF90CF90BF90AF909F908F907F906F90E0
:100860005F904F900895E8E2F1E024912D8327FDF9
:10087000E4CF61E00E9455022D81222321F08D8179
:10088000823009F005C24801B12CA12C60E072E170
:100890008AE790E0A50198010E94F40D29833A832C
:1008A0004B835C8369017A0191E0C91AD108E108A0
:1008B000F1082FEFC216D104E104F10409F00CF4A1
:1008C000B6C160E472E48FE090E0A50198010E9457
:1008D000F40D69017A0181E0C81AD108E108F10834
:1008E0009D81923009F026C182E02FEFC216D1041B
:1008F000E104F10409F00CF46CC160E970ED83E0EF
:1009000090E0A50198010E94F40D69017A0181E04F
:10091000C81AD108E108F10883E09FEFC916D10495
:10092000E104F10409F00CF454C168E478EE81E0CC
:1009300090E0A50198010E94F40D69017A0181E01F
:10094000C81AD108E108F1089FEFC916D104E104E3
:10095000F10411F00CF044C184E03BC1809300022B
:10096000E8E2F1E094919D839F3F09F466CF9230D5
:1009700009F474C058F4992399F1913009F44CC0EA
:1009800097FD5BCF61E00E94550279CF2D81243025
:1009900009F4AEC008F488C0253091F71092200108
:1009A00010922101909121019860909321019091E2
:1009B0002101916090932101282F30E0F901E9583D
:1009C000FE4FE491F0E0EE0FFF1FED5BFE4F45910F
:1009D0005491F901E354FE4FE491E093640249CF4E
:1009E00014BC15BC94B5926094BD95B5916095BD4D
:1009F000282F30E0F901E958FE4FE491F0E0EE0FC6
:100A0000FF1FED5BFE4F45915491F901E354FE4FFA
:100A1000E491E09368022DCF109280001092810043
:100A200090918100986090938100909181009160F5
:100A300090938100282F30E0F901E958FE4FE491AE
:100A4000F0E0EE0FFF1FED5BFE4F45915491F90171
:100A5000E354FE4FE491E09367020BCF1092B00095
:100A60001092B1009091B00092609093B00090917C
:100A7000B10091609093B100282F30E0F901E9585E
:100A8000FE4FE491F0E0EE0FFF1FED5BFE4F45914E
:100A9000549150937E0240937D02F901E354FE4F3E
:100AA000E491E0937F02E5CE1092900010929100C5
:100AB0009091910098609093910090919100916035
:100AC00090939100282F30E0F901E958FE4FE4910E
:100AD000F0E0EE0FFF1FED5BFE4F45915491F901E1
:100AE000E354FE4FE491E093660293E09D83C1CE10
:100AF0001092A0001092A1009091A1009860909394
:100B0000A1009091A10091609093A100282F30E066
:100B1000F901E958FE4FE491F0E0EE0FFF1FED5BA5
:100B2000FE4F45915491F901E354FE4FE491E09357
:100B300065029FCE2FEFC216D104E104F10409F043
:100B40000CF4A4C068E478EE81E090E0A50198017F
:100B50000E94F40D69017A0181E0C81AD108E10808
:100B6000F1089D81992309F489C19FEFC916D10429
:100B7000E104F10409F00CF4EFCE62E17AE780E0E1
:100B800090E0A50194010E94F40D69017A0181E0D1
:100B9000C81AD108E108F1089D81992309F453C1CD
:100BA00086E09FEFC916D104E104F10491F088F0CA
:100BB000C980DA80EB80FC808AE0F594E794D794D2
:100BC000C7948A95D1F781E0C81AD108E108F108E5
:100BD00087E09091B100987F892B8093B1002FC05E
:100BE00064E274EF80E090E0A50194010E94F40DAE
:100BF00069017A0181E0C81AD108E108F10885E0AD
:100C00009FEFC916D104E104F10419F310F362E176
:100C10007AE780E090E0A50194010E94F40D69015B
:100C20007A0181E0C81AD108E108F108B9CF81E062
:100C30002D812111CECF95B5987F892B85BD2FEFC2
:100C40003FEFA901411451046104710409F049C046
:100C50009D81923009F4E7C00CF0CEC0992309F4CD
:100C6000D3C0913009F0E9CDD0928900C0928800BC
:100C70002093750230937602409377025093780266
:100C800080916F00826080936F00D7CD82E0D0CFDB
:100C9000B12CA12C60E072E18AE790E0A5019801F7
:100CA0000E94F40D69017A0181E0C81AD108E108B7
:100CB000F108C114D10491E0E906F10404F591E0D2
:100CC0002D81213069F580918100887F892B809367
:100CD00081002FEF3FEFA901411451046104710419
:100CE00019F2D801AA0FBB1FA30192010E94130E93
:100CF00028EE33E040E050E00E941A0DA9CF68E4EE
:100D000078EE81E090E0A50198010E94F40D690160
:100D10007A0181E0C81AD108E108F10893E0D0CF48
:100D20008D81833001F580919100887F892B80939C
:100D300091002FEF3FEFA9014114510461047104A8
:100D400081F6D0929900C09298002093710230935E
:100D5000720240937302509374028091710082601A
:100D6000809371006ACD2D81243009F58091A10016
:100D7000887F892B8093A1002FEF3FEFA9014114B9
:100D800051046104710409F0ACCFD092A900C09263
:100D9000A80020936D0230936E0240936F0250932F
:100DA00070028091720082608093720046CD8D81C6
:100DB000853009F044CF80912101887F892B809371
:100DC00021012FEF3FEFA901411451046104710487
:100DD00009F087CFD0922901C0922801209369029F
:100DE00030936A0240936B0250936C0280917300BF
:100DF00082608093730021CD8D81843031F20CF4B8
:100E0000A0CF853039F319CDC7BC20937902309338
:100E10007A0240937B0250937C0280916E00826044
:100E200080936E000ACDC092B3002093800230936D
:100E3000810240938202509383028091700082600D
:100E400080937000FACC84E02FEFC216D104E10445
:100E5000F10409F008F4EFCEC980DA80EB80FC8061
:100E60009AE0F594E794D794C7949A95D1F791E0D6
:100E7000C91AD108E108F10885E0DDCE83E02FEF43
:100E8000C216D104E104F10411F00CF076CED3CEF9
:100E900060E087E30E94550260E088E30E9455020B
:100EA00060E081E10E94550260E082E10E9455020B
:100EB00060E083E10E94550260E088E20E945502F2
:100EC00060E08AE20E94550261E084E10E945502DE
:100ED00060E084E10E94FD0160E08AE10E94550229
:100EE00061E08BE00E94550261E087E00E945502BC
:100EF00061E086E00E94550261E086E10E945502B1
:100F000061E087E10E94550261E088E10E9455029C
:100F100061E089E10E945502E1EAF0E08081887F8A
:100F200081608083109290008BE08093910089EF24
:100F300090E0909399008093980082E080937100F4
:100F4000089560E086E10E94FD0120E041E068E153
:100F500089E10E942B0220E041E068E189E10E94E2
:100F60002B0261E086E10E94FD0160E087E10E94C2
:100F7000FD0120E041E068E189E10E942B0261E08F
:100F800087E10C94FD01CF93DF93D82FC62F60E04B
:100F900086E10E94FD012D2F41E068E189E10E9478
:100FA0002B022C2F41E068E189E10E942B0261E0D5
:100FB00086E1DF91CF910C94FD01CF93C82F60E0C3
:100FC00087E10E94FD012C2F41E068E189E10E9448
:100FD0002B0261E087E1CF910C94FD0120E030E02D
:100FE000A901BC018BE00C94FE038BE00E94590325
:100FF00060E08BE00C94FD016B30710514F06AE049
:1010000070E077FF02C070E060E0660F771FDB01E1
:10101000A35BBD4F9C010B9714F02AE030E037FF33
:1010200002C030E020E0220F331FF901E35BFD4FE7
:101030006C9180810C94C3078436910514F083E68B
:1010400090E097FF02C090E080E06AE070E00E94CC
:10105000060D9B01BC01C9010C94FC07CF92DF92E5
:10106000EF92FF920F931F930E94E10200918D0275
:1010700010918E0220918F02309190026B017C01C1
:10108000C01AD10AE20AF30A970186010530110558
:101090002105310590F160938D0270938E0280934B
:1010A0008F02909390024091950250919602209168
:1010B0009302309194028091C3024217530724F5A2
:1010C00020919102309192022F5F3F4F237033277E
:1010D0003093920220939102220F331FF901E55FB2
:1010E000FD4F90819F70807F892B8093C3024F5F5B
:1010F0005F4F50939602409395021F910F91FF907E
:10110000EF90DF90CF90089524173507D4F4209105
:101110009102309192022D5F3F4F2370332730931D
:10112000920220939102220F331FF901E55FFD4FD8
:1011300090819F70807F892B8093C3024150510919
:10114000D8CF807F8093C302D8CF8091BD02909189
:10115000BE02803921E0920734F08935924034F4A0
:1011600081E090E0089590E080E0089582E090E0D2
:10117000089563E070E080E090E00E943703862FDE
:101180000895CF93DF93CFEAD2E00E94B908899304
:1011900082E0C83BD807C9F7DF91CF91089581E07D
:1011A00090E09093B9028093B8021092A10210923D
:1011B000A00210929D020E94E1026093A20270932D
:1011C000A3028093A4029093A502E3ECF2E0808155
:1011D0008F7880830C94F50782E090E09093B902B9
:1011E0008093B80210929F0210929E021092BC024D
:1011F0000E94E1026093A2027093A3028093A40272
:101200009093A5020895CF93DF93EC0184E090E0E2
:101210009093B9028093B802D0939C02C0939B0232
:1012200010929A02109299021092980210929702CC
:101230000E94E1026093A2027093A3028093A40231
:101240009093A502E7E0209721F0E6E0219709F0CE
:10125000E0E00E2E000CFF0BEE0FFF1FE35CFD4FD6
:1012600080819181DF91CF910C94EE07CF93DF9332
:10127000EC0185E090E09093B9028093B8020E945F
:10128000F507E3ECF2E080818F788083CE010E9445
:101290001C0810929402109293021092BC02DF91EB
:1012A000CF91089581E090E090930602809305022B
:1012B000109296021092950210929402109293024C
:1012C00010929202109291021092C4021092C302E4
:1012D0000E94F5076AE070E08AE090E00C94FC0759
:1012E0001F920F920FB60F9211240BB60F922F93ED
:1012F0003F934F935F936F937F938F939F93AF939E
:10130000BF93EF93FF938091BA029091BB02853017
:101310009105C0F401969093BB028093BA02FF91AD
:10132000EF91BF91AF919F918F917F916F915F915D
:101330004F913F912F910F900BBE0F900FBE0F90CA
:101340001F9018951092BB021092BA0283E10E947E
:10135000D4019093C2028093C10282E10E94D40121
:101360009093C0028093BF0287E30E949102909302
:10137000BE028093BD028091BF029091C00200978F
:1013800051F420910702309108022130310519F4FF
:1013900021E02093BC029093080280930702BFCF04
:1013A0000E9448070E94A10786E30E949102BC01A7
:1013B000990F880B990B0E94510383E10E94D4017D
:1013C0009093C2028093C10282E10E94D401909363
:1013D000C0028093BF0287E30E9491029093BE02F5
:1013E0008093BD028091C1029091C20290930A0243
:1013F000809309021092B9021092B8020C9452091B
:101400004F925F926F927F928F929F92AF92BF9214
:10141000CF92DF92EF92FF92CF93DF930E94E1028F
:101420006B017C018091C1029091C202209109025E
:1014300030910A0282179307D1F090930A028093A9
:1014400009020E94F5078091C1029091C2020197A2
:1014500041F48091C302807880648093C3020E942B
:10146000C1080E9452091092B9021092B8028091EC
:10147000C1029091C202892B91F48091C302DF9145
:10148000CF91FF90EF90DF90CF90BF90AF909F9063
:101490008F907F906F905F904F900C94DD078091BC
:1014A000B8029091B9028230910509F406C1D0F4D6
:1014B000009709F44DC0019709F46CC08091C302F4
:1014C0000E94DD07DF91CF91FF90EF90DF90CF90EA
:1014D000BF90AF909F908F907F906F905F904F9054
:1014E0000C942E088430910509F466C1D8F0059754
:1014F00029F780910502909106028436910514F037
:1015000083E690E097FF02C090E080E00E941C0814
:101510008091C3028F788093C3020E94F5071092D6
:10152000BC02CCCF8091050290910602AFEAB2E0F6
:10153000E6EAF2E09F01265A3240281739070CF0FC
:10154000D6C131912D913217A9F381E090E031C1DC
:101550008091C3028F7880628093C3026AE070E05A
:101560008AE090E00E94FC078091BC02882309F485
:10157000A5CF1092BC020E94C10881E090E0909338
:1015800006028093050210929402109293020E9428
:10159000CF0894CF6091A0027091A1026F5F7F4F3E
:1015A00080910502909106020E94FC0720919D0205
:1015B0008091A2029091A302A091A402B091A502F1
:1015C000A701211138C09601281B390B4A0B5B0B70
:1015D000DA01C901883C9105A105B10508F46ECF77
:1015E00081E080939D02C092A202D092A302E09279
:1015F000A402F092A502E091A002F091A102E155AF
:10160000FD4F808190E0FC01E65CFD4F208127705A
:10161000322F3295307F2091C3022F78232B2093D5
:10162000C302880F991FFC01EC5CFD4F8081918102
:101630000E94EE0743CF9601281B390B4A0B5B0B28
:10164000DA01C901843F9140A105B10508F436CF04
:1016500010929D02C092A202D092A302E092A40234
:10166000F092A5028091C3028F788093C3020E94FA
:10167000F5078091A0029091A10201969093A1029A
:101680008093A002209105023091060282179307F1
:101690000CF414CF0E94E1026093A2027093A302A3
:1016A0008093A4029093A5026CE271E080E090E048
:1016B0000E94AE020E94EC0801CF80910502909139
:1016C000060220919E0230919F02BC01621B730BA7
:1016D0000E94FC070E94A508EC01C701B60128EC96
:1016E00030E040E050E00E941A0D90E020FD05C07F
:1016F000FE01E65CFD4F90819770892F8295807F77
:101700009091C3029F78982B9093C3028091BC0262
:10171000882309F4D3CE1092BC02E0919E02F0918E
:101720009F02EA55FD4FC083FE01E65CFD4F8081BC
:101730008770282F2295207F892F8F78822B809386
:10174000C3020E94DD07CC0FDD1FCC5CDD4F88811A
:1017500099810E94EE0764EF71E080E090E00E94C2
:10176000AE020E94F5078091C3028F788093C30276
:1017700080919E0290919F02019690939F02809388
:101780009E022091050230910602821793070CF405
:1017900095CE83E090E09093B9028093B8028ECE0C
:1017A0000197880F991F909394028093930282E08F
:1017B00090E00E94030982CE80919B0290919C024E
:1017C000009709F472C0019709F066C061E070E00B
:1017D000E3E0F0E04FE152E085E292E020919902EF
:1017E00030919A028090A2029090A302A090A4024D
:1017F000B090A50226013701481859086A087B08ED
:10180000D901AA0FBB1FA40FB51F8D909C90092C66
:10181000000CAA08BB08481459046A047B0408F4A5
:101820004DCEC092A202D092A302E092A402F09206
:10183000A5022F5F3F4F2E173F070CF442C01092B6
:101840009A021092990220919702309198022F5F8C
:101850003F4F309398022093970226173707ACF139
:101860000E94F50780919B0290919C02009709F4D9
:101870008ECE019719F580910502909106021816F7
:10188000190614F081E090E01092940210929302F5
:1018900001970E94360912CE63E070E0E4E0F0E0C8
:1018A00043E152E08BE192E099CF61E070E0E4E047
:1018B000F0E048E252E080E392E090CF89E090E0EF
:1018C000E8CF30939A0220939902209199023091A7
:1018D0009A02820F931FDC01EC91E7FD05C0EE0F29
:1018E000FF0BE35CFD4FA2CE0E94F507E7CD8930E8
:1018F00091050CF055CF9C012F5F3F4F30930602AE
:1019000020930502880F991F90939402809393026D
:1019100090E080E04ECF789484B5826084BD84B539
:10192000816084BD85B5826085BD85B5816085BDDA
:1019300080916E00816080936E0010928100809192
:10194000810082608093810080918100816080931A
:101950008100809180008160809380008091B1003F
:1019600084608093B1008091B00081608093B0006A
:1019700080919100826080939100809191008160BC
:10198000809391008091900081608093900080917D
:10199000A10082608093A1008091A100816080936A
:1019A000A1008091A00081608093A000809121011E
:1019B00082608093210180912101816080932101C7
:1019C0008091200181608093200180917A00846061
:1019D00080937A0080917A00826080937A0080916F
:1019E0007A00816080937A0080917A008068809389
:1019F0007A001092C1000E94D009C0E0D0E00E949D
:101A0000000A2097E1F30E940000F9CF97FB072E10
:101A100016F4009407D077FD09D00E943C0D07FC16
:101A200005D03EF4909581959F4F089570956195EE
:101A30007F4F0895A1E21A2EAA1BBB1BFD010DC00A
:101A4000AA1FBB1FEE1FFF1FA217B307E407F5076E
:101A500020F0A21BB30BE40BF50B661F771F881F4A
:101A6000991F1A9469F760957095809590959B01E0
:101A7000AC01BD01CF010895AA1BBB1B51E107C0FA
:101A8000AA1FBB1FA617B70710F0A61BB70B881F0E
:101A9000991F5A95A9F780959095BC01CD0108959D
:101AA0008F929F92AF92BF92CF92DF92EF92FF926E
:101AB000CF93DF93EC01688179818A819B816115E5
:101AC00071058105910521F464E279ED8BE597E0DC
:101AD0002DE133EF41E050E00E94F40D49015A013D
:101AE0009B01AC01A7EAB1E40E94130E6B017C01DB
:101AF000ACEEB4EFA50194010E94210EC60ED71ED4
:101B0000E81EF91EF7FE06C081E0C81AD108E108F8
:101B100080E8F80AC882D982EA82FB82C701B6014E
:101B20009F77DF91CF91FF90EF90DF90CF90BF90A4
:101B3000AF909F908F9008958F929F92AF92BF9297
:101B4000CF92DF92EF92FF926091010270910202B8
:101B50008091030290910402611571058105910540
:101B600021F464E279ED8BE597E02DE133EF41E07C
:101B700050E00E94F40D49015A019B01AC01A7EA13
:101B8000B1E40E94130E6B017C01ACEEB4EFA50131
:101B900094010E94210EC60ED71EE81EF91EF7FE04
:101BA00006C081E0C81AD108E10880E8F80AC092AE
:101BB0000102D0920202E0920302F0920402C701F5
:101BC000B6019F77FF90EF90DF90CF90BF90AF90DE
:101BD0009F908F900895609301027093020280930A
:101BE0000302909304020895052E97FB1EF40094BF
:101BF0000E940B0E57FD07D00E941A0D07FC03D060
:101C00004EF40C940B0E50954095309521953F4F16
:101C10004F4F5F4F089590958095709561957F4FD8
:101C20008F4F9F4F08950E94260EA59F900DB49F41
:101C3000900DA49F800D911D11240895B7FF0C9461
:101C4000130E0E94130E821B930B0895A29FB001E6
:101C5000B39FC001A39F700D811D1124911DB29FE0
:101C6000700D811D1124911D0895EE0FFF1F881F17
:0E1C70008BBF0790F691E02D1994F894FFCFEA
:101C7E00FF0100000001000100010009000C000638
:101C8E000003002C012C012C012C01000204072C56
:101C9E000164002C0106FF066400640064002C0140
:101CAE000702040706014A01880101020406012603
:101CBE00014A015D018801B801EE010B023F0006E9
:101CCE00005B004F0066006D007D0027007F006FF7
:041CDE000000000002
:00000001FF
