:100000000C9424010C9445010C9445010C94450179
:100010000C9445010C9445010C9445010C94450148
:100020000C9445010C9445010C9445010C94450138
:100030000C9445010C9445010C9445010C94450128
:100040000C9445010C9445010C9445010C94450118
:100050000C9445010C9445010C9445010C946B02E1
:100060000C9445010C9445010C9445010C944501F8
:100070000C9445010C9445010C9445010C944501E8
:100080000C945B030C9445010C9445010C944501C0
:100090000C9445010C9445010C9445010C944501C8
:1000A0000C9445010C9445010C9445010C944501B8
:1000B0000C9445010C9445010C9445010C944501A8
:1000C0000C9445010C9445010C9445010C94450198
:1000D0000C9445010C9445010C9445010C94450188
:1000E0000C9445010C9498010C9492010C948E018F
:1000F0000C949C010C9473010C94A0010C948A0143
:100100000C946F010C9465010C94AA010C94770176
:100110000C9480010C947A010C94A5010C94840138
:100120000C946B010C94A601000021002400270010
:100130002A002D00300033000101000004010701F6
:100140000A0100002200250028002B002E003100AB
:10015000340002010000050108010B01000020002D
:100160002300260029002C002F003200000100008F
:10017000030106010901050505050705080808082A
:10018000020202020A0A080804040404010101012F
:10019000010101010303030303030303040707072A
:1001A0000C0C0C0C0C0C0C0C0202020206060606CF
:1001B000060606060B0B0B0B0B0B0B0B010210209C
:1001C000200808102040102040800201020108048D
:1001D0000201010204081020408080402010080421
:1001E000020180040201804020100804020108047A
:1001F00002010102040810204080010204081020BE
:10020000408000000A0B02090C0D0E0807030401D0
:1002100000000000000000000000000000000000DE
:1002200000000000000000000000000000001211AB
:1002300010000000000000000000000000000000AE
:10024000000000000000000011241FBECFEFD1E22B
:10025000DEBFCDBF00E00CBF12E0A0E0B2E0EAEDEF
:10026000FAE000E00BBF02C007900D92A233B10785
:10027000D9F722E0A2E3B2E001C01D92AE34B2078A
:10028000E1F70E94C0040C946B050C9400008150AF
:10029000823108F05AC0E82FF0E08827ED5AFE4F6F
:1002A0008F4F0C9463057301770165016B016F013A
:1002B000A5017A01800184018A018E0192019801D1
:1002C0009C01A501A001A601AA01809180008F7761
:1002D000809380000895809180008F7DF9CF809178
:1002E0008000877FF5CF84B58F7784BD089584B56E
:1002F0008F7DFBCF8091B0008F778093B000089501
:100300008091B0008F7DF9CF809190008F7780939E
:1003100090000895809190008F7DF9CF809190009A
:10032000877FF5CF8091A0008F778093A0000895FC
:100330008091A0008F7DF9CF8091A000877FF5CFBD
:10034000809120018F778093200108958091200172
:100350008F7DF9CF80912001877FF5CFCF93DF93F9
:10036000282F30E0F901EE5FFD4F8491F901E4544C
:10037000FE4FD491F901EA58FE4FC491CC23A1F06D
:1003800081110E944701EC2FF0E0EE0FFF1FE45AAD
:10039000FE4FA591B491EC91ED2381E090E009F43A
:1003A00080E0DF91CF91089580E090E0FACF1F9335
:1003B000CF93DF93282F30E0F901EE5FFD4F84915A
:1003C000F901E454FE4FD491F901EA58FE4FC4916B
:1003D000CC23A9F0162F81110E944701EC2FF0E0E9
:1003E000EE0FFF1FEE5BFE4FA591B4918FB7F8940F
:1003F000EC91111108C0D095DE23DC938FBFDF9103
:10040000CF911F910895DE2BF8CFFF920F931F938A
:10041000CF93DF93082F162FF42EC22FD8E06C2F26
:10042000F11015C06170802F0E94D701C69561E060
:10043000812F0E94D70160E0812F0E94D701D15007
:1004400071F7DF91CF911F910F91FF900895661F73
:100450006627661F802F0E94D701CC0FE8CFCF936D
:10046000DF9390E0FC01E454FE4F24918A589E4FA4
:10047000FC0184918823C9F090E0880F991FFC014A
:10048000E85DFE4FA591B491FC01EE5BFE4FC59176
:10049000D49161110DC09FB7F8948C91209582235F
:1004A0008C938881282328839FBFDF91CF91089563
:1004B000623051F49FB7F8943C91822F809583234A
:1004C0008C93E8812E2BEFCF8FB7F894EC912E2BE5
:1004D0002C938FBFEACF1F920F920FB60F92112469
:1004E0002F933F938F939F93AF93BF938091370246
:1004F00090913802A0913902B0913A0230913602BF
:1005000023E0230F2D3758F50196A11DB11D20932F
:1005100036028093370290933802A0933902B09349
:100520003A028091320290913302A0913402B0914C
:1005300035020196A11DB11D8093320290933302C2
:10054000A0933402B0933502BF91AF919F918F91E8
:100550003F912F910F900FBE0F901F90189526E896
:10056000230F0296A11DB11DD2CF60E087E30E9448
:100570002F0260E088E30E942F0260E081E10E9488
:100580002F0260E082E10E942F0260E083E10E947E
:100590002F0260E088E20E942F0260E08AE20E945F
:1005A0002F0261E084E10E942F0260E084E10E945A
:1005B000D70160E08AE10E942F0261E08BE00E9497
:1005C0002F0261E087E00E942F0261E086E00E9436
:1005D0002F0261E086E10E942F0261E087E10E9424
:1005E0002F0261E088E10E942F0261E089E10E9410
:1005F0002F02E1EAF0E08081887F816080831092A1
:1006000090008BE08093910089EF90E090939900A7
:100610008093980082E080937100089560E086E105
:100620000E94D70120E041E068E189E10E940502D3
:1006300020E041E068E189E10E94050261E086E195
:100640000E94D70160E087E10E94D70120E041E0ED
:1006500068E189E10E94050261E087E10C94D7011D
:10066000CF93DF93D82FC62F60E086E10E94D70199
:100670002D2F41E068E189E10E9405022C2F41E025
:1006800068E189E10E94050261E086E1DF91CF9196
:100690000C94D701CF93C82F60E087E10E94D70167
:1006A0002C2F41E068E189E10E94050261E087E1C9
:1006B000CF910C94D7011F920F920FB60F92112475
:1006C0000BB60F922F933F934F935F936F937F934C
:1006D0008F939F93AF93BF93EF93FF9380913F02CC
:1006E000909140029C012F5F3F4F30934002209336
:1006F0003F02069748F11092400210923F0283E1B8
:100700000E94AE01909349028093480282E10E94C8
:10071000AE019093470280934602809146029091E9
:100720004702892B49F4809142029091430201973C
:1007300019F481E080934102809146029091470232
:10074000909343028093420280913D0290913E0239
:10075000892B49F080913D0290913E020197909340
:100760003E0280933D0280913B0290913C02892B96
:1007700049F080913B0290913C02019790933C029A
:1007800080933B02FF91EF91BF91AF919F918F9129
:100790007F916F915F914F913F912F910F900BBE81
:1007A0000F900FBE0F901F9018950E94B5020E94E7
:1007B0000E0383E10E94AE019093490280934802A8
:1007C00082E10E94AE019093430280934202909393
:1007D00047028093460208952091480230914902D1
:1007E00080914402909145022130310509F0A8C062
:1007F00020914802309149022817390711F1809160
:100800004802909149029093450280934402E091FE
:100810004A02F0914B02EE0FFF1FEE0FFF1FE05058
:10082000FE4F8281938190933E0280933D0210920D
:100830004B0210924A0280914C028F788064809320
:100840004C02809141028823C1F0109241028091B4
:100850004C02982F9077903481F425E030E030936B
:100860004B0220934A0220ED37E030933E02209362
:100870003D028F78806580934C0280913D0290917B
:100880003E02892B39F580914A0290914B020196E4
:100890008730910574F590934B0280934A02E09162
:1008A0004A02F0914B02EE0FFF1FEE0FFF1FE050C8
:1008B000FE4F8281938190933E0280933D0280811E
:1008C0008770982F9295907F80914C028F78892B1A
:1008D00080934C0280914A0290914B0201970497B9
:1008E00068F46FE38FE30E94300380914C020C9414
:1008F0004A0310924B0210924A02D1CF80913D02DE
:1009000090913E02892B69F380913D0290913E02C5
:1009100089519C4F68EE73E00E943B05CB016AE071
:1009200070E00E944F05DC01AA0FBB1FA45EBD4F03
:10093000660F771FFB01E45EFD4F6C918081D3CF82
:1009400020914802309149022817390789F0809197
:10095000480290914902909345028093440280910D
:100960004C028F7880934C026FE38FE30E94300338
:1009700080914102882309F4B8CF10924102B5CF8B
:10098000789484B5826084BD84B5816084BD85B56A
:10099000826085BD85B5816085BD80916E00816076
:1009A00080936E001092810080918100826080931C
:1009B000810080918100816080938100809180001E
:1009C0008160809380008091B10084608093B10049
:1009D0008091B00081608093B0008091910082602E
:1009E000809391008091910081608093910080912B
:1009F00090008160809390008091A100826080933C
:100A0000A1008091A10081608093A1008091A0004D
:100A100081608093A00080912101826080932101F8
:100A2000809121018160809321018091200181606A
:100A30008093200180917A00846080937A00809175
:100A40007A00826080937A0080917A00816080933E
:100A50007A0080917A00806880937A001092C100B9
:100A60000E94D503C0E0D0E00E94EC032097E1F3A0
:100A70000E940000F9CFAA1BBB1B51E107C0AA1FAF
:100A8000BB1FA617B70710F0A61BB70B881F991F2F
:100A90005A95A9F780959095BC01CD01089597FBD3
:100AA000072E16F4009407D077FD09D00E943B056D
:100AB00007FC05D03EF4909581959F4F0895709561
:100AC00061957F4F0895EE0FFF1F881F8BBF079022
:0A0AD000F691E02D1994F894FFCF81
:100ADA00040088130000F4010400F4010000F4018A
:100AEA000400F4010500D007010088133F00060046
:100AFA005B004F0066006D007D0027007F006F00DD
:020B0A000000E9
:00000001FF
