:100000000C9435010C9466010C9466010C94660105
:100010000C9466010C9466010C9466010C946601C4
:100020000C9466010C9466010C9466010C946601B4
:100030000C9466010C9466010C9466010C946601A4
:100040000C9466010C9466010C9466010C94660194
:100050000C9466010C9466010C9466010C94CF0319
:100060000C9466010C945C040C9432040C946601AC
:100070000C9466010C9466010C9466010C94660164
:100080000C9480050C9466010C9466010C94660136
:100090000C9466010C9466010C9466010C94660144
:1000A0000C9466010C9466010C9466010C94660134
:1000B0000C9466010C9466010C9466010C94660124
:1000C0000C9466010C9466010C9466010C94660114
:1000D0000C9466010C9466010C9466010C94660104
:1000E0000C9466010C9486010C94A5010C94B20248
:1000F0000C94C7010C94B9010C94CB010C94980199
:100100000C94AB010C949B060C94AF010C9465020B
:100110000C94C1010C94B3010C9490010C940B024B
:100120000C94CF010C949B010C94A1010C942D0212
:100130000C941F020C9494010C94C6010C94FC01C5
:100140000C948C010C94BD010000210024002700B8
:100150002A002D00300033000101000004010701D6
:100160000A0100002200250028002B002E0031008B
:10017000340002010000050108010B01000020000D
:100180002300260029002C002F003200000100006F
:10019000030106010901050505050705080808080A
:1001A000020202020A0A080804040404010101010F
:1001B000010101010303030303030303040707070A
:1001C0000C0C0C0C0C0C0C0C0202020206060606AF
:1001D000060606060B0B0B0B0B0B0B0B010210207C
:1001E000200808102040102040800201020108046D
:1001F0000201010204081020408080402010080401
:100200000201800402018040201008040201080459
:10021000020101020408102040800102040810209D
:10022000408000000A0B02090C0D0E0807030401B0
:1002300000000000000000000000000000000000BE
:10024000000000000000000000000000000012118B
:10025000100000000000000000000000000000008E
:1002600000000000000000009B0611241FBECFEF1D
:10027000D1E2DEBFCDBF00E00CBF12E0A0E0B2E0F3
:10028000E8EEFDE000E00BBF02C007900D92AE313A
:10029000B107D9F722E0AEE1B2E001C01D92A03D66
:1002A000B207E1F711E0C5E3D1E000E006C0219715
:1002B0000109802FFE010E94EA06C433D10780E0C5
:1002C0000807A9F70E9424060C94F2060C9400007B
:1002D0008150823108F05AC0E82FF0E08827EC58AE
:1002E000FE4F8F4F0C94EA069401980186018C0111
:1002F0009001C6019B01A101A501AB01AF01B301B2
:10030000B901BD01C601C101C701CB0180918000C7
:100310008F77809380000895809180008F7DF9CF42
:1003200080918000877FF5CF84B58F7784BD089555
:1003300084B58F7DFBCF8091B0008F778093B00024
:1003400008958091B0008F7DF9CF809190008F77D4
:10035000809390000895809190008F7DF9CF8091D7
:100360009000877FF5CF8091A0008F778093A000C9
:1003700008958091A0008F7DF9CF8091A000877FA4
:10038000F5CF809120018F7780932001089580918F
:1003900020018F7DF9CF80912001877FF5CFAF922B
:1003A000BF92CF92DF92EF92FF920F931F93CF9362
:1003B000DF936C017B018B01040F151FEB015E01C4
:1003C000AE18BF08C017D10759F06991D601ED9159
:1003D000FC910190F081E02DC6011995892B79F7E8
:1003E000C501DF91CF911F910F91FF90EF90DF90AA
:1003F000CF90BF90AF900895FC01538D448D252F71
:1004000030E0842F90E0821B930B541710F0CF96AE
:10041000089501970895FC01918D828D981761F0E0
:10042000A28DAE0FBF2FB11D5D968C91928D9F5FF7
:100430009F73928F90E008958FEF9FEF0895FC01D6
:10044000918D828D981731F0828DE80FF11D858D89
:1004500090E008958FEF9FEF0895FC01918D228D1C
:10046000892F90E0805C9F4F821B91098F739927A1
:1004700008958EE192E00E942D0221E0892B09F47B
:1004800020E0822F0895FC01A48DA80FB92FB11D83
:10049000A35ABF4F2C91848D90E001968F739927BA
:1004A000848FA689B7892C93A089B1898C91837098
:1004B00080648C93938D848D981306C00288F38991
:1004C000E02D80818F7D80830895EF92FF920F93BE
:1004D0001F93CF93DF93EC0181E0888F9B8D8C8DF0
:1004E00098131AC0E889F989808185FF15C09FB7E4
:1004F000F894EE89FF896083E889F98980818370A7
:10050000806480839FBF81E090E0DF91CF911F9155
:100510000F91FF90EF900895F62E0B8D10E00F5F76
:100520001F4F0F731127E02E8C8D8E110CC00FB64C
:1005300007FCFACFE889F989808185FFF5CFCE01E4
:100540000E944302F1CFEB8DEC0FFD2FF11DE35A1A
:10055000FF4FF0829FB7F8940B8FEA89FB89808167
:100560008062CFCFCF93DF93EC01888D8823B9F0E1
:10057000AA89BB89E889F9898C9185FD03C08081AE
:1005800086FD0DC00FB607FCF7CF8C9185FFF2CF2B
:10059000808185FFEDCFCE010E944302E9CFDF913C
:1005A000CF91089580E090E0892B29F00E943902D4
:1005B00081110E94000080E090E0892B49F080E0EA
:1005C00090E0892B29F00E94000081110E94000018
:1005D00080E090E0892B49F080E090E0892B29F0C1
:1005E0000E94000081110E94000080E090E0892BB1
:1005F00049F080E090E0892B29F00E9400008111F1
:100600000C9400000895FB0101900020E9F7319758
:10061000AF01461B570BDC01ED91FC910280F38189
:10062000E02D1994CF93DF93282F30E0F901EE5D90
:10063000FD4F8491F901E452FE4FD491F901EA563D
:10064000FE4FC491CC23A1F081110E946801EC2FD0
:10065000F0E0EE0FFF1FE458FE4FA591B491EC912E
:10066000ED2381E090E009F480E0DF91CF910895DF
:1006700080E090E0FACF1F93CF93DF93282F30E0F4
:10068000F901EE5DFD4F8491F901E452FE4FD491E2
:10069000F901EA56FE4FC491CC23A9F0162F81111F
:1006A0000E946801EC2FF0E0EE0FFF1FEE59FE4FA5
:1006B000A591B4918FB7F894EC91111108C0D09521
:1006C000DE23DC938FBFDF91CF911F910895DE2B46
:1006D000F8CFFF920F931F93CF93DF93082F162F1E
:1006E000F42EC22FD8E06C2FF11015C06170802F4E
:1006F0000E943B03C69561E0812F0E943B0360E0AE
:10070000812F0E943B03D15071F7DF91CF911F9150
:100710000F91FF900895661F6627661F802F0E9425
:100720003B03CC0FE8CFCF93DF9390E0FC01E45282
:10073000FE4F24918A569E4FFC0184918823C9F074
:1007400090E0880F991FFC01E85BFE4FA591B491E2
:10075000FC01EE59FE4FC591D49161110DC09FB7B8
:10076000F8948C91209582238C9388812823288368
:100770009FBFDF91CF910895623051F49FB7F894F5
:100780003C91822F809583238C93E8812E2BEFCF91
:100790008FB7F894EC912E2B2C938FBFEACF1F923A
:1007A0000F920FB60F9211242F933F938F939F9325
:1007B000AF93BF938091C0029091C102A091C202F9
:1007C000B091C3023091BF0223E0230F2D3758F5BB
:1007D0000196A11DB11D2093BF028093C00290938A
:1007E000C102A093C202B093C3028091BB02909158
:1007F000BC02A091BD02B091BE020196A11DB11D27
:100800008093BB029093BC02A093BD02B093BE0242
:10081000BF91AF919F918F913F912F910F900FBEFC
:100820000F901F90189526E8230F0296A11DB11D69
:10083000D2CF0F931F93CF93DF938C01D0E0C0E012
:100840006115710519F00E940303EC016AE172E081
:10085000C8010E9403038C0F9D1FDF91CF911F9150
:100860000F9108951F920F920FB60F9211240BB69D
:100870000F922F933F934F935F936F937F938F9339
:100880009F93AF93BF93EF93FF938EE192E00E940B
:100890004302FF91EF91BF91AF919F918F917F9113
:1008A0006F915F914F913F912F910F900BBE0F90E1
:1008B0000FBE0F901F9018951F920F920FB60F92B8
:1008C00011240BB60F922F938F939F93EF93FF9367
:1008D000E0912E02F0912F028081E0913402F0919C
:1008E000350282FD1DC09081809137028F5F8F732A
:1008F00020913802821741F0E0913702F0E0E25E89
:10090000FD4F958F80933702FF91EF919F918F91CB
:100910002F910F900BBE0F900FBE0F901F90189548
:100920008081F2CFCF92DF92EF92FF921F93CF930D
:10093000DF93EC016A017B01122FE889F98982E0DB
:100940008083C11481EED806E104F104A1F060E0D7
:1009500079E08DE390E0A70196010E94C80621503E
:100960003109410951095695479537952795211524
:1009700080E1380798F0E889F989108260E874E826
:100980008EE190E0A70196010E94C806215031092E
:10099000410951095695479537952795EC85FD8571
:1009A0003083EE85FF852083188EEC89FD891083C6
:1009B000EA89FB89808180618083EA89FB89808163
:1009C00088608083EA89FB89808180688083EA89E6
:1009D000FB8980818F7D8083DF91CF911F91FF9074
:1009E000EF90DF90CF90089560E087E30E9493033B
:1009F00060E088E30E94930360E081E10E9493033A
:100A000060E082E10E94930360E083E10E9493032F
:100A100060E088E20E94930360E08AE20E94930310
:100A200061E084E10E94930360E084E10E943B0363
:100A300060E08AE10E94930361E08BE00E949303EF
:100A400061E087E00E94930361E086E00E949303E7
:100A500061E086E10E94930361E087E10E949303D5
:100A600061E088E10E94930361E089E10E949303C1
:100A7000E1EAF0E08081887F8160808310929000BD
:100A80008BE08093910089EF90E0909399008093A0
:100A9000980082E080937100089560E086E10E94F2
:100AA0003B0320E041E068E189E10E94690320E026
:100AB00041E068E189E10E94690361E086E10E940A
:100AC0003B0360E087E10E943B0320E041E068E1F6
:100AD00089E10E94690361E087E10C943B03CF93B5
:100AE000C82F60E087E10E943B032C2F41E068E1C2
:100AF00089E10E94690361E087E1CF910C943B0397
:100B00001F920F920FB60F9211240BB60F922F93D4
:100B10003F934F935F936F937F938F939F93AF9385
:100B2000BF93EF93FF938091C6029091C7029C01FF
:100B30002F5F3F4F3093C7022093C602069720F1E4
:100B40001092C7021092C60282E10E941203909393
:100B5000CD028093CC028091CC029091CD02892B62
:100B600059F48091CA029091CB028130910521F411
:100B70009093C9028093C8028091CC029091CD02DB
:100B80009093CB028093CA028091C4029091C502D7
:100B9000892B49F08091C4029091C50201979093EE
:100BA000C5028093C402FF91EF91BF91AF919F91D5
:100BB0008F917F916F915F914F913F912F910F9006
:100BC0000BBE0F900FBE0F901F9018950E94F4045B
:100BD0000E944D0582E10E9412039093CB02809304
:100BE000CA029093CD028093CC0226E040E855E201
:100BF00060E070E08EE192E00C9492048091C80273
:100C00009091C902892B81F062E172E08EE192E05D
:100C10000E9419041092C9021092C80288EE93E053
:100C20009093C5028093C4022091C4023091C50202
:100C30008091CE028F78232B09F080648093CE02BE
:100C40008091CE020C946F05789484B5826084BD47
:100C500084B5816084BD85B5826085BD85B58160C0
:100C600085BD80916E00816080936E00109281003E
:100C700080918100826080938100809181008160F9
:100C800080938100809180008160809380008091BA
:100C9000B10084608093B1008091B0008160809346
:100CA000B0008091910082608093910080919100CA
:100CB000816080939100809190008160809390008A
:100CC0008091A10082608093A1008091A100816049
:100CD0008093A1008091A00081608093A00080910A
:100CE00021018260809321018091210181608093A4
:100CF00021018091200181608093200180917A0000
:100D0000846080937A0080917A00826080937A0078
:100D100080917A00816080937A0080917A00806867
:100D200080937A001092C1000E94E6050E94FE05A1
:100D30000E94D202FBCFEEE1F2E01382128288EE33
:100D400093E0A0E0B0E084839583A683B78384E03A
:100D500092E09183808385EC90E09587848784EC92
:100D600090E09787868780EC90E0918B808B81EC78
:100D700090E0938B828B82EC90E0958B848B86EC59
:100D800090E0978B868B118E128E138E148E0895A1
:100D9000A1E21A2EAA1BBB1BFD010DC0AA1FBB1F7F
:100DA000EE1FFF1FA217B307E407F50720F0A21BF1
:100DB000B30BE40BF50B661F771F881F991F1A945E
:100DC00069F760957095809590959B01AC01BD0188
:100DD000CF010895EE0FFF1F881F8BBF0790F6917C
:080DE000E02D1994F894FFCFF7
:100DE800000000006502CF01FC01B2022D020B02D7
:0E0DF8001F0270757368656421000D0A00000B
:00000001FF
