:100000000C9424010C9445010C9445010C94450179
:100010000C9445010C9445010C9445010C94450148
:100020000C9445010C9445010C9445010C94450138
:100030000C9445010C9445010C9445010C94450128
:100040000C9445010C9445010C9445010C94450118
:100050000C9445010C9445010C9445010C946B02E1
:100060000C9445010C9445010C9445010C944501F8
:100070000C9445010C9445010C9445010C944501E8
:100080000C9490030C9445010C9445010C9445018B
:100090000C9445010C9445010C9445010C944501C8
:1000A0000C9445010C9445010C9445010C944501B8
:1000B0000C9445010C9445010C9445010C944501A8
:1000C0000C9445010C9445010C9445010C94450198
:1000D0000C9445010C9445010C9445010C94450188
:1000E0000C9445010C94AA010C946B010C947A01B8
:1000F0000C9498010C9484010C9480010C9465017B
:100100000C94A0010C9477010C948A010C94730157
:100110000C946F010C948E010C94A5010C94920127
:100120000C94A6010C949C010000210024002700DF
:100130002A002D00300033000101000004010701F6
:100140000A0100002200250028002B002E003100AB
:10015000340002010000050108010B01000020002D
:100160002300260029002C002F003200000100008F
:10017000030106010901050505050705080808082A
:10018000020202020A0A080804040404010101012F
:10019000010101010303030303030303040707072A
:1001A0000C0C0C0C0C0C0C0C0202020206060606CF
:1001B000060606060B0B0B0B0B0B0B0B010210209C
:1001C000200808102040102040800201020108048D
:1001D0000201010204081020408080402010080421
:1001E000020180040201804020100804020108047A
:1001F00002010102040810204080010204081020BE
:10020000408000000A0B02090C0D0E0807030401D0
:1002100000000000000000000000000000000000DE
:1002200000000000000000000000000000001211AB
:1002300010000000000000000000000000000000AE
:10024000000000000000000011241FBECFEFD1E22B
:10025000DEBFCDBF00E00CBF12E0A0E0B2E0EAE0FC
:10026000FBE000E00BBF02C007900D92A233B10784
:10027000D9F722E0A2E3B2E001C01D92A135B20796
:10028000E1F70E94D8040C9483050C94000081507F
:10029000823108F05AC0E82FF0E08827ED5AFE4F6F
:1002A0008F4F0C947B057301770165016B016F0122
:1002B000A5017A01800184018A018E0192019801D1
:1002C0009C01A501A001A601AA01809180008F7761
:1002D000809380000895809180008F7DF9CF809178
:1002E0008000877FF5CF84B58F7784BD089584B56E
:1002F0008F7DFBCF8091B0008F778093B000089501
:100300008091B0008F7DF9CF809190008F7780939E
:1003100090000895809190008F7DF9CF809190009A
:10032000877FF5CF8091A0008F778093A0000895FC
:100330008091A0008F7DF9CF8091A000877FF5CFBD
:10034000809120018F778093200108958091200172
:100350008F7DF9CF80912001877FF5CFCF93DF93F9
:10036000282F30E0F901EE5FFD4F8491F901E4544C
:10037000FE4FD491F901EA58FE4FC491CC23A1F06D
:1003800081110E944701EC2FF0E0EE0FFF1FE45AAD
:10039000FE4FA591B491EC91ED2381E090E009F43A
:1003A00080E0DF91CF91089580E090E0FACF1F9335
:1003B000CF93DF93282F30E0F901EE5FFD4F84915A
:1003C000F901E454FE4FD491F901EA58FE4FC4916B
:1003D000CC23A9F0162F81110E944701EC2FF0E0E9
:1003E000EE0FFF1FEE5BFE4FA591B4918FB7F8940F
:1003F000EC91111108C0D095DE23DC938FBFDF9103
:10040000CF911F910895DE2BF8CFFF920F931F938A
:10041000CF93DF93082F162FF42EC22FD8E06C2F26
:10042000F11015C06170802F0E94D701C69561E060
:10043000812F0E94D70160E0812F0E94D701D15007
:1004400071F7DF91CF911F910F91FF900895661F73
:100450006627661F802F0E94D701CC0FE8CFCF936D
:10046000DF9390E0FC01E454FE4F24918A589E4FA4
:10047000FC0184918823C9F090E0880F991FFC014A
:10048000E85DFE4FA591B491FC01EE5BFE4FC59176
:10049000D49161110DC09FB7F8948C91209582235F
:1004A0008C938881282328839FBFDF91CF91089563
:1004B000623051F49FB7F8943C91822F809583234A
:1004C0008C93E8812E2BEFCF8FB7F894EC912E2BE5
:1004D0002C938FBFEACF1F920F920FB60F92112469
:1004E0002F933F938F939F93AF93BF938091370246
:1004F00090913802A0913902B0913A0230913602BF
:1005000023E0230F2D3758F50196A11DB11D20932F
:1005100036028093370290933802A0933902B09349
:100520003A028091320290913302A0913402B0914C
:1005300035020196A11DB11D8093320290933302C2
:10054000A0933402B0933502BF91AF919F918F91E8
:100550003F912F910F900FBE0F901F90189526E896
:10056000230F0296A11DB11DD2CF60E087E30E9448
:100570002F0260E088E30E942F0260E081E10E9488
:100580002F0260E082E10E942F0260E083E10E947E
:100590002F0260E088E20E942F0260E08AE20E945F
:1005A0002F0261E084E10E942F0260E084E10E945A
:1005B000D70160E08AE10E942F0261E08BE00E9497
:1005C0002F0261E087E00E942F0261E086E00E9436
:1005D0002F0261E086E10E942F0261E087E10E9424
:1005E0002F0261E088E10E942F0261E089E10E9410
:1005F0002F02E1EAF0E08081887F816080831092A1
:1006000090008BE08093910089EF90E090939900A7
:100610008093980082E080937100089560E086E105
:100620000E94D70120E041E068E189E10E940502D3
:1006300020E041E068E189E10E94050261E086E195
:100640000E94D70160E087E10E94D70120E041E0ED
:1006500068E189E10E94050261E087E10C94D7011D
:10066000CF93DF93D82FC62F60E086E10E94D70199
:100670002D2F41E068E189E10E9405022C2F41E025
:1006800068E189E10E94050261E086E1DF91CF9196
:100690000C94D701CF93DF9300D000D000D01F92ED
:1006A000CDB7DEB72AE0E2E1F2E0DE01119601907B
:1006B0000D922A95E1F7880F991FE1E0F0E0EC0F29
:1006C000FD1FE80FF91F808191812A960FB6F894DB
:1006D000DEBF0FBECDBFDF91CF910895CF93C82F5E
:1006E00060E087E10E94D7012C2F41E068E189E1B9
:1006F0000E94050261E087E1CF910C94D701681B4D
:10070000790BCB0188589F4F68E770E00E94530532
:10071000009729F08D33910514F0885791090895B9
:100720001F920F920FB60F9211240BB60F922F93B8
:100730003F934F935F936F937F938F939F93AF9369
:10074000BF93EF93FF9380913D0290913E028630DC
:10075000910508F5019690933E0280933D028091A9
:100760003B0290913C02019690933C0280933B02A5
:10077000FF91EF91BF91AF919F918F917F916F9179
:100780005F914F913F912F910F900BBE0F900FBE35
:100790000F901F90189510923E0210923D0282E138
:1007A0000E94AE0190934C0280934B0281E10E9423
:1007B000AE0190934A028093490220914B023091FE
:1007C0004C022115310551F44091470250914802E5
:1007D0004130510519F441E04093440281309105C4
:1007E00049F44091450250914602452B19F441E0ED
:1007F000409343023093480220934702909346026D
:1008000080934502ACCF80914102909142020196C3
:1008100084309105A4F49093420280934102809128
:100820004102909142020E944A03982F9F7080914A
:100830004F02807F892B80934F020C946E0310929D
:10084000420210924102EBCF80914102909142020C
:10085000019797FD14C090934202809341028091CA
:100860004102909142020E944A03982F9F7080910A
:100870004F02807F892B80934F020C946E0383E09C
:1008800090E0E9CF0E94B5020E940E0382E10E942F
:10089000AE01909348028093470290934C0280935C
:1008A0004B0281E10E94AE01909346028093450283
:1008B00090934A028093490266E080E00C943003F2
:1008C000809144028823D9F0109244028091000262
:1008D000909101020196893091050CF05EC09093D1
:1008E000010280930002E0910002F0910102EE0FFC
:1008F000FF1FE45EFD4F608180E00E943003809125
:1009000043028823E1F010924302E0910002F0914B
:100910000102EE0FFF1FE050FE4F60817181E091F8
:100920004D02F0914E02EE0FFF1FEE5FFD4F8081F2
:1009300091810E947F039093400280933F028091B7
:100940003F0290914002009739F120913B02309193
:100950003C022F31310588F010923C0210923B028C
:1009600097FF1EC00E94240480913F029091400294
:1009700001969093400280933F0280913F029091B4
:100980004002892B49F48091000290910102019765
:1009900090934E0280934D02089581E090E09FCFA6
:1009A0000E94030480913F02909140020197E1CFA1
:1009B000789484B5826084BD84B5816084BD85B53A
:1009C000826085BD85B5816085BD80916E00816046
:1009D00080936E00109281008091810082608093EC
:1009E00081008091810081608093810080918000EE
:1009F0008160809380008091B10084608093B10019
:100A00008091B00081608093B000809191008260FD
:100A100080939100809191008160809391008091FA
:100A200090008160809390008091A100826080930B
:100A3000A1008091A10081608093A1008091A0001D
:100A400081608093A00080912101826080932101C8
:100A5000809121018160809321018091200181603A
:100A60008093200180917A00846080937A00809145
:100A70007A00826080937A0080917A00816080930E
:100A80007A0080917A00806880937A001092C10089
:100A90000E944204C0E0D0E00E9460042097E1F38D
:100AA0000E940000F9CF97FB072E16F4009407D0A0
:100AB00077FD09D00E94670507FC05D03EF49095AC
:100AC00081959F4F0895709561957F4F0895AA1B5A
:100AD000BB1B51E107C0AA1FBB1FA617B70710F029
:100AE000A61BB70B881F991F5A95A9F7809590955B
:100AF000BC01CD010895EE0FFF1F881F8BBF07902B
:0A0B0000F691E02D1994F894FFCF50
:100B0A0001000F001E002D003C004B005A00690036
:100B1A00780009000C000600030000003F000600F0
:100B2A005B004F0066006D007D0027007F006F00AC
:020B3A000000B9
:00000001FF
