:100000000C9435010C9466010C9466010C94660105
:100010000C9466010C9466010C9466010C946601C4
:100020000C9466010C9466010C9466010C946601B4
:100030000C9466010C9466010C9466010C946601A4
:100040000C9466010C9466010C9466010C94660194
:100050000C9466010C9466010C9466010C946D047A
:100060000C9466010C9418060C94EE050C94660131
:100070000C9466010C9466010C9466010C94660164
:100080000C9466010C9466010C9466010C94660154
:100090000C9466010C9466010C9466010C94660144
:1000A0000C9466010C9466010C9466010C94660134
:1000B0000C9466010C9466010C9466010C94660124
:1000C0000C9466010C9466010C9466010C94660114
:1000D0000C9466010C9466010C9466010C94660104
:1000E0000C9466010C94B3010C94AF010C949B0129
:1000F0000C94C1010C94AB010C948C010C944B0238
:100100000C94FB010C94BD010C9491020C94C6015B
:100110000C9498010C9494010C9428020C94A10165
:100120000C9459020C94C7010C9486010C94900114
:100130000C94B9010C94A5010C94CB010C94DE0233
:100140000C9437020C94480800002100240027007A
:100150002A002D00300033000101000004010701D6
:100160000A0100002200250028002B002E0031008B
:10017000340002010000050108010B01000020000D
:100180002300260029002C002F003200000100006F
:10019000030106010901050505050705080808080A
:1001A000020202020A0A080804040404010101010F
:1001B000010101010303030303030303040707070A
:1001C0000C0C0C0C0C0C0C0C0202020206060606AF
:1001D000060606060B0B0B0B0B0B0B0B010210207C
:1001E000200808102040102040800201020108046D
:1001F0000201010204081020408080402010080401
:100200000201800402018040201008040201080459
:10021000020101020408102040800102040810209D
:10022000408000000A0B02090C0D0E0807030401B0
:1002300000000000000000000000000000000000BE
:10024000000000000000000000000000000012118B
:10025000100000000000000000000000000000008E
:100260000000000000000000480811241FBECFEF6E
:10027000D1E2DEBFCDBF00E00CBF12E0A0E0B2E0F3
:10028000EAEBF5E100E00BBF02C007900D92AA383F
:10029000B107D9F723E0AAE8B2E001C01D92A23469
:1002A000B207E1F711E0C5E3D1E000E006C0219715
:1002B0000109802FFE010E94D30AC433D10780E0D8
:1002C0000807A9F70E94D1070C94DB0A0C940000E0
:1002D0008150823108F05AC0E82FF0E08827EC58AE
:1002E000FE4F8F4F0C94D30A9401980186018C0124
:1002F0009001C6019B01A101A501AB01AF01B301B2
:10030000B901BD01C601C101C701CB0180918000C7
:100310008F77809380000895809180008F7DF9CF42
:1003200080918000877FF5CF84B58F7784BD089555
:1003300084B58F7DFBCF8091B0008F778093B00024
:1003400008958091B0008F7DF9CF809190008F77D4
:10035000809390000895809190008F7DF9CF8091D7
:100360009000877FF5CF8091A0008F778093A000C9
:1003700008958091A0008F7DF9CF8091A000877FA4
:10038000F5CF809120018F7780932001089580918F
:1003900020018F7DF9CF80912001877FF5CF3FB776
:1003A000F89480912C0390912D03A0912E03B0918D
:1003B0002F0326B5A89B05C02F3F19F00196A11D5C
:1003C000B11D3FBFBA2FA92F982F8827BC01CD019F
:1003D000620F711D811D911D42E0660F771F881FFE
:1003E000991F4A95D1F70895DC01ED91FC91019098
:1003F000F081E02D1994AF92BF92CF92DF92EF92ED
:10040000FF920F931F93CF93DF936C017B018B01BE
:10041000040F151FEB015E01AE18BF08C017D1070E
:1004200059F06991D601ED91FC910190F081E02D98
:10043000C6011995892B79F7C501DF91CF911F91DD
:100440000F91FF90EF90DF90CF90BF90AF90089505
:10045000FC01538D448D252F30E0842F90E0821BCA
:10046000930B541710F0CF96089501970895FC014F
:10047000918D828D981761F0A28DAE0FBF2FB11DA7
:100480005D968C91928D9F5F9F73928F90E00895FF
:100490008FEF9FEF0895FC01918D828D981731F0B9
:1004A000828DE80FF11D858D90E008958FEF9FEF0D
:1004B0000895FC01918D228D892F90E0805C9F4FE3
:1004C000821B91098F73992708958AE892E00E9410
:1004D000590221E0892B09F420E0822F0895FC01C4
:1004E000A48DA80FB92FB11DA35ABF4F2C91848D95
:1004F00090E001968F739927848FA689B7892C93F2
:10050000A089B1898C91837080648C93938D848D44
:10051000981306C00288F389E02D80818F7D808347
:100520000895EF92FF920F931F93CF93DF93EC0107
:1005300081E0888F9B8D8C8D98131AC0E889F9898A
:10054000808185FF15C09FB7F894EE89FF8960838D
:10055000E889F98980818370806480839FBF81E00E
:1005600090E0DF91CF911F910F91FF90EF90089550
:10057000F62E0B8D10E00F5F1F4F0F731127E02E2B
:100580008C8D8E110CC00FB607FCFACFE889F98963
:10059000808185FFF5CFCE010E946F02F1CFEB8DF8
:1005A000EC0FFD2FF11DE35AFF4FF0829FB7F89437
:1005B0000B8FEA89FB8980818062CFCFCF93DF9355
:1005C000EC01888D8823B9F0AA89BB89E889F9896B
:1005D0008C9185FD03C0808186FD0DC00FB607FCA0
:1005E000F7CF8C9185FFF2CF808185FFEDCFCE01D3
:1005F0000E946F02E9CFDF91CF91089580E090E0F3
:10060000892B29F00E94650281110E94000080E080
:1006100090E0892B49F080E090E0892B29F00E943E
:10062000000081110E94000080E090E0892B49F0D9
:1006300080E090E0892B29F00E94000081110E9447
:10064000000080E090E0892B49F080E090E0892B69
:1006500029F00E94000081110C9400000895FB0114
:1006600001900020E9F73197AF01461B570BDC01E1
:10067000ED91FC910280F381E02D19948F929F926D
:10068000AF92BF92EF92FF920F931F93CF93DF939E
:10069000CDB7DEB7A1970FB6F894DEBF0FBECDBFC2
:1006A0007C01FA01CB0119A2223008F42AE08E0164
:1006B0000F5D1F4F822E912CB12CA12CBF01A501E3
:1006C00094010E94B10AF901CA016A300CF5605D1B
:1006D000D8016E938D01232B242B252B79F790E0E5
:1006E00080E0109721F0BD01C7010E942F03A19661
:1006F0000FB6F894DEBF0FBECDBFDF91CF911F9133
:100700000F91FF90EF90BF90AF909F908F900895C2
:10071000695CDECFCF93DF93282F30E0F901EE5DE7
:10072000FD4F8491F901E452FE4FD491F901EA564C
:10073000FE4FC491CC23A1F081110E946801EC2FDF
:10074000F0E0EE0FFF1FE458FE4FA591B491EC913D
:10075000ED2381E090E009F480E0DF91CF910895EE
:1007600080E090E0FACF1F93CF93DF93282F30E003
:10077000F901EE5DFD4F8491F901E452FE4FD491F1
:10078000F901EA56FE4FC491CC23A9F0162F81112E
:100790000E946801EC2FF0E0EE0FFF1FEE59FE4FB4
:1007A000A591B4918FB7F894EC91111108C0D09530
:1007B000DE23DC938FBFDF91CF911F910895DE2B55
:1007C000F8CFCF93DF9390E0FC01E452FE4F2491E9
:1007D0008A569E4FFC0184918823C9F090E0880FCF
:1007E000991FFC01E85BFE4FA591B491FC01EE5905
:1007F000FE4FC591D49161110DC09FB7F8948C91B3
:10080000209582238C938881282328839FBFDF91A2
:10081000CF910895623051F49FB7F8943C91822FA4
:10082000809583238C93E8812E2BEFCF8FB7F8949C
:10083000EC912E2B2C938FBFEACF863308F0865392
:1008400020917B00982F9870277F922B90937B00AC
:100850008770806480937C0080917A0080648093AC
:100860007A0080917A0086FDFCCF8091780090918B
:10087000790008958F929F92AF92BF92CF92DF92AC
:10088000EF92FF926B017C010E94CF014B015C0152
:10089000C114D104E104F104B9F00E94CF01681938
:1008A00079098A099B09683E73408105910580F3A7
:1008B00021E0C21AD108E108F10888EE880E83E031
:1008C000981EA11CB11CE4CFFF90EF90DF90CF9059
:1008D000BF90AF909F908F9008951F920F920FB688
:1008E0000F9211242F933F938F939F93AF93BF93B6
:1008F0008091280390912903A0912A03B0912B03A2
:100900003091270323E0230F2D3758F50196A11DC1
:10091000B11D209327038093280390932903A0936C
:100920002A03B0932B0380912C0390912D03A09167
:100930002E03B0912F030196A11DB11D80932C03AE
:1009400090932D03A0932E03B0932F03BF91AF91EB
:100950009F918F913F912F910F900FBE0F901F90FD
:10096000189526E8230F0296A11DB11DD2CF6BE783
:1009700072E00C942F034F925F926F927F928F924E
:100980009F92AF92BF92EF92FF920F931F93CF93DC
:10099000DF938C014A015B01E22EAB019401CB0194
:1009A000B4010E94AC0A6EE772E0811126C02401F6
:1009B0003501E89477F82FEF3FEF4FE75FE7C3018A
:1009C000B2010E94AC0A81110CC02FEF3FEF4FE73C
:1009D0005FE7C301B2010E944F0A62E872E0181695
:1009E00064F02FEF3FEF4FE75FE4C501B4010E94D1
:1009F000A70A18169CF466E872E0C801DF91CF914F
:100A00001F910F91FF90EF90BF90AF909F908F90AC
:100A10007F906F905F904F900C942F032FEF3FEFDC
:100A20004FE75FECC501B4010E944F0A87FDE3CF99
:100A300020E030E0A901C501B4010E944F0AD0E0D6
:100A4000C0E087FF09C06DE2C8010E94F401EC011B
:100A5000B7FAB094B7F8B094FE2C712C60E070E057
:100A600080E09FE37E1440F420E030E040E251E477
:100A70000E9475087394F6CFA50194010E94E309C2
:100A80004B015C010E94540A2B013C012AE0BC018D
:100A9000A201C8010E943E03C80FD91FEE20D1F168
:100AA000C301B2010E94E7089B01AC01C501B4017A
:100AB0000E94E2094B015C016EE2C8010E94F40150
:100AC000C80FD91FFA948FEFF81621F120E030E01B
:100AD00040E251E4C501B4010E9475092B013C01BB
:100AE0000E94540A4B01B12CA12C2AE0B501A401AB
:100AF000C8010E943E03C80FD91FC501B4010E945E
:100B0000E7089B01AC01C301B2010E94E2094B015D
:100B10005C01D8CFCE01DF91CF911F910F91FF9053
:100B2000EF90BF90AF909F908F907F906F905F906D
:100B30004F900895CF92DF92EF92FF920F931F9301
:100B4000CF93DF934115510579F4DC01ED91FC91D0
:100B50000190F081E02DDF91CF911F910F91FF90D7
:100B6000EF90DF90CF9019946B01770FEE08FF089C
:100B70004A305105F1F42AE0F7FE1CC0EC016DE2A9
:100B80000E94F4018C0144275527BA014C195D09D4
:100B90006E097F092AE0CE010E943E03800F911F5B
:100BA000DF91CF911F910F91FF90EF90DF90CF9049
:100BB0000895242FB701A601DF91CF911F910F91C6
:100BC000FF90EF90DF90CF900C943E03611571057C
:100BD00011F00C942F0390E080E008951F920F9283
:100BE0000FB60F9211240BB60F922F933F934F9392
:100BF0005F936F937F938F939F93AF93BF93EF9385
:100C0000FF938AE892E00E946F02FF91EF91BF91FB
:100C1000AF919F918F917F916F915F914F913F9194
:100C20002F910F900BBE0F900FBE0F901F90189535
:100C30001F920F920FB60F9211240BB60F922F93A3
:100C40008F939F93EF93FF93E0919A02F0919B0211
:100C50008081E091A002F091A10282FD1DC09081EF
:100C60008091A3028F5F8F732091A402821741F0BD
:100C7000E091A302F0E0E657FD4F958F8093A30229
:100C8000FF91EF919F918F912F910F900BBE0F903D
:100C90000FBE0F901F9018958081F2CFCF92DF92F8
:100CA000EF92FF921F93CF93DF93EC016A017B01D8
:100CB000122FE889F98982E08083C11481EED80679
:100CC000E104F104A1F060E079E08DE390E0A70198
:100CD00096010E94B10A21503109410951095695E6
:100CE000479537952795211580E1380798F0E889D1
:100CF000F989108260E874E88EE190E0A70196011E
:100D00000E94B10A21503109410951095695479570
:100D100037952795EC85FD853083EE85FF8520830B
:100D2000188EEC89FD891083EA89FB8980818061B6
:100D30008083EA89FB89808188608083EA89FB89D6
:100D4000808180688083EA89FB8980818F7D8083B0
:100D5000DF91CF911F91FF90EF90DF90CF9008959A
:100D600061E084E10E94E10360E084E10E94B3035A
:100D700060E087E30E94E10360E088E30E94E10312
:100D800060E081E10E94E10360E082E10E94E10312
:100D900060E083E10E94E10360E088E20E94E103F9
:100DA00060E08AE20E94E10326E040E855E260E06C
:100DB00070E08AE892E00C944E06CF93DF9387E3CD
:100DC0000E941D04909341038093400388E30E9496
:100DD0001D04EC0190933F0380933E036091400318
:100DE00070914103072E000C880B990B0E94E908B3
:100DF00020E030EC4FE754E40E94750820E030E03A
:100E000040EA50E40E9475096093340370933503FF
:100E10008093360390933703BE01DD0F880B990B47
:100E20000E94E90820E030EC4FE754E40E94750886
:100E300020E030E040EA50E40E94750960933003FE
:100E400070933103809332039093330381E10E94C6
:100E50008A0390933D0380933C0382E10E948A03BE
:100E600090933B0380933A0383E10E948A0390931B
:100E700039038093380362E172E08AE892E00E94CD
:100E8000E60560914003709141034AE050E08AE832
:100E900092E00E949A0560E272E08AE892E00E9485
:100EA000E60540913403509135036091360370910B
:100EB000370322E030E08AE892E00E94BB0464E25B
:100EC00072E08AE892E00E94E6056AE272E08AE84F
:100ED00092E00E94E60560913E0370913F034AE074
:100EE00050E08AE892E00E949A0560E272E08AE8A7
:100EF00092E00E94E60540913003509131036091E9
:100F000032037091330322E030E08AE892E00E94DD
:100F1000BB0464E272E08AE892E00E94E6058091F8
:100F20003C0390913D0368E372E0892B11F064E487
:100F300072E08AE892E00E94E60564E272E08AE8E4
:100F400092E00E94E60580913A0390913B036FE4A2
:100F500072E0019711F06AE572E08AE892E00E947F
:100F6000E60564E272E08AE892E00E94E60580917C
:100F700038039091390364E672E0892B11F46FE62F
:100F800072E08AE892E00E94E6058AE892E00E9418
:100F9000B70468EE73E080E090E0DF91CF910C94AD
:100FA0003A04789484B5826084BD84B5816084BD40
:100FB00085B5826085BD85B5816085BD80916E00F7
:100FC000816080936E001092810080918100826028
:100FD0008093810080918100816080938100809165
:100FE00080008160809380008091B1008460809354
:100FF000B1008091B00081608093B0008091910039
:101000008260809391008091910081608093910033
:10101000809190008160809390008091A100826017
:101020008093A1008091A10081608093A1008091B4
:10103000A00081608093A000809121018260809354
:101040002101809121018160809321018091200103
:1010500081608093200180917A00846080937A007F
:1010600080917A00826080937A0080917A0081601A
:1010700080937A0080917A00806880937A00109241
:10108000C1000E94B0060E94DD060E94FE02FBCF56
:10109000EAE8F2E01382128288EE93E0A0E0B0E08A
:1010A00084839583A683B78384E092E091838083D1
:1010B00085EC90E09587848784EC90E0978786871D
:1010C00080EC90E0918B808B81EC90E0938B828B15
:1010D00082EC90E0958B848B86EC90E0978B868BEE
:1010E000118E128E138E148E08950E9489080C940E
:1010F0003B090E94340958F00E942D0940F029F460
:101100005F3F29F00C94240951110C946F090C9441
:101110002A090E944C0968F39923B1F3552391F3EE
:10112000951B550BBB27AA2762177307840738F056
:101130009F5F5F4F220F331F441FAA1FA9F335D0B3
:101140000E2E3AF0E0E832D091505040E695001C67
:10115000CAF72BD0FE2F29D0660F771F881FBB1F21
:10116000261737074807AB07B0E809F0BB0B802DFF
:10117000BF01FF2793585F4F3AF09E3F510578F02B
:101180000C9424090C946F095F3FE4F3983ED4F368
:10119000869577956795B795F7959F5FC9F7880FFF
:1011A000911D9695879597F90895E1E0660F771F51
:1011B000881FBB1F621773078407BA0720F0621BE2
:1011C000730B840BBA0BEE1F88F7E0950895E89433
:1011D00009C097FB3EF490958095709561957F4F7F
:1011E0008F4F9F4F9923A9F0F92F96E9BB2793952D
:1011F000F695879577956795B795F111F8CFFAF43D
:10120000BB0F11F460FF1BC06F5F7F4F8F4F9F4F6D
:1012100016C0882311F096E911C0772321F09EE8CB
:10122000872F762F05C0662371F096E8862F70E031
:1012300060E02AF09A95660F771F881FDAF7880F0B
:101240009695879597F9089597F99F6780E870E0DC
:1012500060E008959FEF80EC089500240A9416162C
:10126000170618060906089500240A941216130694
:10127000140605060895092E0394000C11F4882322
:1012800052F0BB0F40F4BF2B11F460FF04C06F5F3E
:101290007F4F8F4F9F4F089557FD9058440F551F14
:1012A00059F05F3F71F04795880F97FB991F61F0E8
:1012B0009F3F79F087950895121613061406551F5F
:1012C000F2CF4695F1DF08C0161617061806991FCB
:1012D000F1CF86957105610508940895E894BB27C0
:1012E00066277727CB0197F908950E9488090C9407
:1012F0003B090E942D0938F00E94340920F0952303
:1013000011F00C9424090C942A0911240C946F09EF
:101310000E944C0970F3959FC1F3950F50E0551F43
:10132000629FF001729FBB27F00DB11D639FAA273A
:10133000F00DB11DAA1F649F6627B00DA11D661F89
:10134000829F2227B00DA11D621F739FB00DA11DAA
:10135000621F839FA00D611D221F749F3327A00D64
:10136000611D231F849F600D211D822F762F6A2F00
:1013700011249F5750409AF0F1F088234AF0EE0F65
:10138000FF1FBB1F661F771F881F91505040A9F792
:101390009E3F510580F00C9424090C946F095F3F27
:1013A000E4F3983ED4F3869577956795B795F795CE
:1013B000E7959F5FC1F7FE2B880F911D9695879546
:1013C00097F908955058BB27AA270E94FA090C9450
:1013D0003B090E942D0938F00E94340920F039F4AD
:1013E0009F3F19F426F40C942A090EF4E095E7FBCC
:1013F0000C942409E92F0E944C0958F3BA1762078C
:1014000073078407950720F079F4A6F50C946E090C
:101410000EF4E0950B2EBA2FA02D0B01B90190010F
:101420000C01CA01A0011124FF27591B99F0593F53
:1014300050F4503E68F11A16F040A22F232F342F9B
:101440004427585FF3CF469537952795A795F040E9
:101450005395C9F77EF41F16BA0B620B730B840BFE
:10146000BAF09150A1F0FF0FBB1F661F771F881FB6
:10147000C2F70EC0BA0F621F731F841F48F487950E
:1014800077956795B795F7959E3F08F0B0CF939500
:10149000880F08F09927EE0F9795879508950E9479
:1014A000830A08F481E008950E94540988F09F5748
:1014B00098F0B92F9927B751B0F0E1F0660F771F78
:1014C000881F991F1AF0BA95C9F714C0B13091F06E
:1014D0000E946E09B1E008950C946E09672F782F71
:1014E0008827B85F39F0B93FCCF386957795679533
:1014F000B395D9F73EF490958095709561957F4F9F
:101500008F4F9F4F0895990F0008550FAA0BE0E8E1
:10151000FEEF16161706E807F907C0F012161306B5
:10152000E407F50798F0621B730B840B950B39F4F5
:101530000A2661F0232B242B252B21F408950A265B
:1015400009F4A140A6958FEF811D811D08950E9489
:10155000830A08F48FEF08950E94830A880B990B81
:101560000895A1E21A2EAA1BBB1BFD010DC0AA1FE4
:10157000BB1FEE1FFF1FA217B307E407F50720F0FC
:10158000A21BB30BE40BF50B661F771F881F991F77
:101590001A9469F760957095809590959B01AC01C0
:1015A000BD01CF010895EE0FFF1F881F8BBF07906D
:0A15B000F691E02D1994F894FFCF96
:1015BA00000000009102FB012802DE0259023702F4
:1015CA004B0258202F20566F6C746167653A2000D1
:1015DA00202F200020202020200059202F20566F65
:1015EA006C746167653A20002050484F203D204FB7
:1015FA00464620002050484F203D204F4E200020D4
:10160A005357203D204F46462000205357203D2067
:10161A004F4E200020545357203D204F4E2000208B
:10162A00545357203D204F464620000D0A006E6154
:0A163A006E00696E66006F766600B0
:00000001FF
