:100000000C9417010C9438010C9438010C943801AD
:100010000C9438010C9438010C9438010C9438017C
:100020000C9438010C9438010C9438010C9438016C
:100030000C9438010C9438010C9438010C9438015C
:100040000C9438010C9438010C9438010C9438014C
:100050000C9438010C9438010C9438010C942C0247
:100060000C9438010C9438010C9438010C9438012C
:100070000C9438010C9438010C9438010C9438011C
:100080000C9402030C9438010C9438010C94380140
:100090000C9438010C9438010C9438010C943801FC
:1000A0000C9438010C9438010C9438010C943801EC
:1000B0000C9438010C9438010C9438010C943801DC
:1000C0000C9438010C9438010C9438010C943801CC
:1000D0000C9438010C9438010C9438010C943801BC
:1000E0000C9438010C94A0010C9490010C94B20172
:1000F0000C9489010C9485010C948D010C9496014B
:100100000C94B6010C94AE010C94A8010C946F01F0
:100110000C9481010C949A010C94A4010C94C001DC
:100120000C94BC010C946A010000210024002700FB
:100130002A002D00300033000101000004010701F6
:100140000A0100002200250028002B002E003100AB
:10015000340002010000050108010B010505050539
:10016000070508080808020202020A0A080804042F
:10017000040401010101010101010303030303035D
:100180000303040707070C0C0C0C0C0C0C0C0202EC
:10019000020206060606060606060B0B0B0B0B0BE9
:1001A0000B0B010210202008081020401020408076
:1001B000020102010804020101020408102040802B
:1001C00080402010080402018004020180402010B9
:1001D0000804020108040201010204081020408002
:1001E000010204081020408000000A0B02090C0DD7
:1001F0000E080703040100000000000000000000DA
:1002000000000000000000000000000000000000EE
:1002100000000000121110000000000000000000AB
:100220000000000000000000000000000000112499
:100230001FBECFEFD1E2DEBFCDBF00E00CBF12E0AA
:10024000A0E0B2E0E4EAF7E000E00BBF02C00790F4
:100250000D92A630B107D9F722E0A6E0B2E001C0C6
:100260001D92A531B207E1F70E944D030C94D00313
:100270000C940000282F30E0F901E851FE4F9491D2
:10028000F901EE55FE4F4491245A3E4FF901249155
:10029000222309F435C0992311F191509231F8F4D9
:1002A000E92FF0E08827E85AFE4F8F4F0C94C803DF
:1002B00089018D016A01810185016F01900196011B
:1002C0009A01A001A401A801AE01B2016F01B6011B
:1002D000BC01C001809180008F7780938000E22F65
:1002E000F0E0EE0FFF1FEE5BFE4FA591B4918FB7CC
:1002F000F894EC91611148C040954E234C938FBF08
:100300000895809180008F7DE8CF80918000877F65
:10031000E4CF84B58F7784BDE2CF84B58F7DFBCFEA
:100320008091B0008F778093B000D9CF8091B000DA
:100330008F7DF9CF809190008F7780939000CFCF01
:10034000809190008F7DF9CF80919000877FF5CFCD
:100350008091A0008F778093A000C1CF8091A000F2
:100360008F7DF9CF8091A000877FF5CF809120010C
:100370008F7780932001B3CF809120018F7DF9CFBB
:1003800080912001877FF5CF4E2BB8CFFF920F933E
:100390001F93CF93DF93082F162FF42EC22FD8E090
:1003A0006C2FF11015C06170802F0E943A01C69524
:1003B00061E0812F0E943A0160E0812F0E943A01A2
:1003C000D15071F7DF91CF911F910F91FF90089558
:1003D000661F6627661F802F0E943A01CC0FE8CF68
:1003E000CF93DF9390E0FC01EE55FE4F2491845AA9
:1003F0009E4FFC0184918823C9F090E0880F991FDB
:10040000FC01E85DFE4FA591B491FC01EE5BFE4F4F
:10041000C591D49161110DC09FB7F8948C9120952E
:1004200082238C938881282328839FBFDF91CF91DB
:100430000895623051F49FB7F8943C91822F8095D3
:1004400083238C93E8812E2BEFCF8FB7F894EC9118
:100450002E2B2C938FBFEACF1F920F920FB60F92C5
:1004600011242F933F938F939F93AF93BF938091CA
:100470000B0290910C02A0910D02B0910E023091EE
:100480000A0223E0230F2D3758F50196A11DB11D57
:1004900020930A0280930B0290930C02A0930D020A
:1004A000B0930E028091060290910702A09108027B
:1004B000B09109020196A11DB11D8093060290938F
:1004C0000702A0930802B0930902BF91AF919F91D8
:1004D0008F913F912F910F900FBE0F901F90189505
:1004E00026E8230F0296A11DB11DD2CF60E087E35D
:1004F0000E94F00160E088E30E94F00160E081E189
:100500000E94F00160E082E10E94F00160E083E17E
:100510000E94F00160E088E20E94F00160E08AE25F
:100520000E94F00161E084E10E94F00160E084E15A
:100530000E943A0160E08AE10E94F00161E08BE0F4
:100540000E94F00161E087E00E94F00161E086E036
:100550000E94F00161E086E10E94F00161E087E124
:100560000E94F00161E088E10E94F00161E089E110
:100570000E94F001E1EAF0E08081887F8160808361
:10058000109290008BE08093910089EF90E090931F
:1005900099008093980082E080937100089560E054
:1005A00086E10E943A0120E041E068E189E10E9491
:1005B000C60120E041E068E189E10E94C60161E0F6
:1005C00086E10E943A0160E087E10E943A0120E062
:1005D00041E068E189E10E94C60161E087E10C9495
:1005E0003A01CF93C82F60E087E10E943A012C2F97
:1005F00041E068E189E10E94C60161E087E1CF91B5
:100600000C943A011F920F920FB60F9211248F9300
:100610009F9380910F029091100201969093100287
:1006200080930F029F918F910F900FBE0F901F909C
:1006300018950E9476020C94CF0280910F0290913F
:100640001002893E934000F11092100210920F02A6
:100650008091110290911202FC01EE0FFF1FE050F9
:10066000FE4F20812770322F3295307F2091130268
:100670002F78232B2093130201968330910544F4A5
:100680009093120280931102809113020C94F10254
:100690001092120210921102F7CF789484B5826002
:1006A00084BD84B5816084BD85B5826085BD85B516
:1006B000816085BD80916E00816080936E00109294
:1006C000810080918100826080938100809181000F
:1006D00081608093810080918000816080938000A0
:1006E0008091B10084608093B1008091B0008160FE
:1006F0008093B000809191008260809391008091FE
:10070000910081608093910080919000816080933E
:1007100090008091A10082608093A1008091A1004F
:1007200081608093A1008091A00081608093A000EF
:10073000809121018260809321018091210181605B
:10074000809321018091200181608093200180911C
:100750007A00846080937A0080917A00826080932E
:100760007A0080917A00816080937A0080917A008B
:10077000806880937A001092C1000E941903C0E043
:10078000D0E00E941D032097E1F30E940000F9CF02
:10079000EE0FFF1F881F8BBF0790F691E02D199475
:0407A000F894FFCFFB
:0607A40006000500030041
:00000001FF
