:100000000C9417010C9438010C9438010C943801AD
:100010000C9438010C9438010C9438010C9438017C
:100020000C9438010C9438010C9438010C9438016C
:100030000C9438010C9438010C9438010C9438015C
:100040000C9438010C9438010C9438010C9438014C
:100050000C9438010C9438010C9438010C9449022A
:100060000C9438010C9438010C9438010C9438012C
:100070000C9438010C9438010C9438010C9438011C
:100080000C945C030C9438010C9438010C943801E6
:100090000C9438010C9438010C9438010C943801FC
:1000A0000C9438010C9438010C9438010C943801EC
:1000B0000C9438010C9438010C9438010C943801DC
:1000C0000C9438010C9438010C9438010C943801CC
:1000D0000C9438010C9438010C9438010C943801BC
:1000E0000C9438010C949A010C94B6010C9485017F
:1000F0000C9481010C94A8010C9496010C948D0130
:100100000C94AE010C9489010C94C0010C946F0105
:100110000C94BC010C946A010C94A0010C94A401F1
:100120000C9490010C94B2010000210024002700DF
:100130002A002D00300033000101000004010701F6
:100140000A0100002200250028002B002E003100AB
:10015000340002010000050108010B010505050539
:10016000070508080808020202020A0A080804042F
:10017000040401010101010101010303030303035D
:100180000303040707070C0C0C0C0C0C0C0C0202EC
:10019000020206060606060606060B0B0B0B0B0BE9
:1001A0000B0B010210202008081020401020408076
:1001B000020102010804020101020408102040802B
:1001C00080402010080402018004020180402010B9
:1001D0000804020108040201010204081020408002
:1001E000010204081020408000000A0B02090C0DD7
:1001F0000E080703040100000000000000000000DA
:1002000000000000000000000000000000000000EE
:1002100000000000121110000000000000000000AB
:100220000000000000000000000000000000112499
:100230001FBECFEFD1E2DEBFCDBF00E00CBF12E0AA
:10024000A0E0B2E0EEEAF9E000E00BBF02C00790E8
:100250000D92A631B107D9F722E0A6E1B2E001C0C4
:100260001D92AD32B207E1F70E942A040C94D50426
:100270000C940000282F30E0F901E851FE4F9491D2
:10028000F901EE55FE4F4491245A3E4FF901249155
:10029000222309F435C0992311F191509231F8F4D9
:1002A000E92FF0E08827E85AFE4F8F4F0C94CD04D9
:1002B00089018D016A01810185016F01900196011B
:1002C0009A01A001A401A801AE01B2016F01B6011B
:1002D000BC01C001809180008F7780938000E22F65
:1002E000F0E0EE0FFF1FEE5BFE4FA591B4918FB7CC
:1002F000F894EC91611148C040954E234C938FBF08
:100300000895809180008F7DE8CF80918000877F65
:10031000E4CF84B58F7784BDE2CF84B58F7DFBCFEA
:100320008091B0008F778093B000D9CF8091B000DA
:100330008F7DF9CF809190008F7780939000CFCF01
:10034000809190008F7DF9CF80919000877FF5CFCD
:100350008091A0008F778093A000C1CF8091A000F2
:100360008F7DF9CF8091A000877FF5CF809120010C
:100370008F7780932001B3CF809120018F7DF9CFBB
:1003800080912001877FF5CF4E2BB8CFFF920F933E
:100390001F93CF93DF93082F162FF42EC22FD8E090
:1003A0006C2FF11015C06170802F0E943A01C69524
:1003B00061E0812F0E943A0160E0812F0E943A01A2
:1003C000D15071F7DF91CF911F910F91FF90089558
:1003D000661F6627661F802F0E943A01CC0FE8CF68
:1003E000CF93DF9390E0FC01EE55FE4F2491845AA9
:1003F0009E4FFC0184918823C9F090E0880F991FDB
:10040000FC01E85DFE4FA591B491FC01EE5BFE4F4F
:10041000C591D49161110DC09FB7F8948C9120952E
:1004200082238C938881282328839FBFDF91CF91DB
:100430000895623051F49FB7F8943C91822F8095D3
:1004400083238C93E8812E2BEFCF8FB7F894EC9118
:100450002E2B2C938FBFEACF863308F08653209142
:100460007B00982F9870277F922B90937B0087704A
:10047000806480937C0080917A00806480937A000D
:1004800080917A0086FDFCCF809178009091790070
:1004900008951F920F920FB60F9211242F933F933E
:1004A0008F939F93AF93BF9380911B0290911C02F7
:1004B000A0911D02B0911E0230911A0223E0230F79
:1004C0002D3758F50196A11DB11D20931A02809376
:1004D0001B0290931C02A0931D02B0931E028091F8
:1004E000160290911702A0911802B091190201967C
:1004F000A11DB11D8093160290931702A0931802BC
:10050000B0931902BF91AF919F918F913F912F911D
:100510000F900FBE0F901F90189526E8230F02969C
:10052000A11DB11DD2CF60E087E30E94F00160E021
:1005300088E30E94F00160E081E10E94F00160E048
:1005400082E10E94F00160E083E10E94F00160E03E
:1005500088E20E94F00160E08AE20E94F00161E01E
:1005600084E10E94F00160E084E10E943A0160E0D1
:100570008AE10E94F00161E08BE00E94F00161E0FD
:1005800087E00E94F00161E086E00E94F00161E0F6
:1005900086E10E94F00161E087E10E94F00161E0E4
:1005A00088E10E94F00161E089E10E94F001E1EA46
:1005B000F0E08081887F81608083109290008BE0E2
:1005C0008093910089EF90E0909399008093980038
:1005D00082E080937100089560E086E10E943A0114
:1005E00020E041E068E189E10E94C60120E041E0AD
:1005F00068E189E10E94C60161E086E10E943A015A
:1006000060E087E10E943A0120E041E068E189E191
:100610000E94C60161E087E10C943A01CF93C82F94
:1006200060E087E10E943A012C2F41E068E189E116
:100630000E94C60161E087E1CF910C943A01FC0170
:1006400020813181FB01808191812535F1E03F07D7
:1006500054F4853521E09207ECF08B3A9240ECF0AF
:1006600088E090E008952B3A324054F08535F1E06F
:100670009F07B4F08B3A9240B4F086E090E0089582
:10068000853541E0940794F08B3A924094F087E0EE
:1006900090E0089582E090E0089585E090E008956C
:1006A00090E080E0089583E090E0089581E090E09C
:1006B000089584E090E008951F920F920FB60F9274
:1006C00011240BB60F922F933F934F935F936F9329
:1006D0007F938F939F93AF93BF93EF93FF938091FB
:1006E0002102909122028630910538F5019690936F
:1006F0002202809321028091230290912402079785
:10070000C9F580911F0290912002019690932002DA
:1007100080931F02FF91EF91BF91AF919F918F91B5
:100720007F916F915F914F913F912F910F900BBEF1
:100730000F900FBE0F901F901895109222021092EA
:10074000210287E30E942C029093280280932702C3
:1007500088E30E942C02909326028093250265E292
:1007600072E087E292E00E941F039093240280933C
:100770002302C1CF84EF91E09093200280931F0267
:1007800010922A0210922902C5CF0E9493020E9461
:10079000EC0287E30E942C029093280280932702A8
:1007A00088E30E942C02909326028093250265E242
:1007B00072E087E292E00E941F03909324028093EC
:1007C000230208958091230290912402873091059D
:1007D00071F580911F0290912002843F9140C8F1F1
:1007E0001092200210921F02E0912902F0912A0239
:1007F000EE0FFF1FE050FE4F80818770982F92957B
:10080000907F80912B028F78892B80932B020E94FE
:100810000E038091290290912A02019662E070E015
:100820000E94A50490932A02809329020895880FBC
:10083000991FFC01EC5FFD4F80818770982F929586
:10084000907F80912B028F78892B80932B020C94C0
:100850000E030895789484B5826084BD84B5816068
:1008600084BD85B5826085BD85B5816085BD80917B
:100870006E00816080936E001092810080918100F3
:1008800082608093810080918100816080938100EB
:10089000809180008160809380008091B1008460AD
:1008A0008093B1008091B00081608093B00080910E
:1008B000910082608093910080919100816080938B
:1008C0009100809190008160809390008091A100C0
:1008D00082608093A1008091A10081608093A1003B
:1008E0008091A00081608093A000809121018260AE
:1008F0008093210180912101816080932101809169
:10090000200181608093200180917A00846080932F
:100910007A0080917A00826080937A0080917A00D8
:10092000816080937A0080917A00806880937A0059
:100930001092C1000E94C503C0E0D0E00E94E20313
:100940002097E1F30E940000F9CF97FB072E16F4E1
:10095000009407D077FD09D00E94B90407FC05D0A8
:100960003EF4909581959F4F0895709561957F4FC6
:100970000895AA1BBB1B51E107C0AA1FBB1FA617E6
:10098000B70710F0A61BB70B881F991F5A95A9F738
:1009900080959095BC01CD010895EE0FFF1F881F33
:0E09A0008BBF0790F691E02D1994F894FFCFCD
:1009AE000700000005000100030004000000020023
:0609BE000700070006001F
:00000001FF
