:100000000C9417010C9438010C9438010C943801AD
:100010000C9438010C9438010C9438010C9438017C
:100020000C9438010C9438010C9438010C9438016C
:100030000C9438010C9438010C9438010C9438015C
:100040000C9438010C9438010C9438010C9438014C
:100050000C9438010C9438010C9438010C9449022A
:100060000C9438010C9438010C9438010C9438012C
:100070000C9438010C9438010C9438010C9438011C
:100080000C94F0030C9438010C9438010C94380152
:100090000C9438010C9438010C9438010C943801FC
:1000A0000C9438010C9438010C9438010C943801EC
:1000B0000C9438010C9438010C9438010C943801DC
:1000C0000C9438010C9438010C9438010C943801CC
:1000D0000C9438010C9438010C9438010C943801BC
:1000E0000C9438010C94A8010C946F010C948D01B0
:1000F0000C94B2010C94C0010C94BC010C949A01B4
:100100000C94A0010C94AE010C94A4010C948901F0
:100110000C946A010C9481010C9490010C94B6012A
:100120000C9485010C949601000021002400270006
:100130002A002D00300033000101000004010701F6
:100140000A0100002200250028002B002E003100AB
:10015000340002010000050108010B010505050539
:10016000070508080808020202020A0A080804042F
:10017000040401010101010101010303030303035D
:100180000303040707070C0C0C0C0C0C0C0C0202EC
:10019000020206060606060606060B0B0B0B0B0BE9
:1001A0000B0B010210202008081020401020408076
:1001B000020102010804020101020408102040802B
:1001C00080402010080402018004020180402010B9
:1001D0000804020108040201010204081020408002
:1001E000010204081020408000000A0B02090C0DD7
:1001F0000E080703040100000000000000000000DA
:1002000000000000000000000000000000000000EE
:1002100000000000121110000000000000000000AB
:100220000000000000000000000000000000112499
:100230001FBECFEFD1E2DEBFCDBF00E00CBF12E0AA
:10024000A0E0B2E0EAE9FAE000E00BBF02C00790EC
:100250000D92AA30B107D9F722E0AAE0B2E001C0BE
:100260001D92AD31B207E1F70E945D040C944B057D
:100270000C940000282F30E0F901E851FE4F9491D2
:10028000F901EE55FE4F4491245A3E4FF901249155
:10029000222309F435C0992311F191509231F8F4D9
:1002A000E92FF0E08827E85AFE4F8F4F0C94430562
:1002B00089018D016A01810185016F01900196011B
:1002C0009A01A001A401A801AE01B2016F01B6011B
:1002D000BC01C001809180008F7780938000E22F65
:1002E000F0E0EE0FFF1FEE5BFE4FA591B4918FB7CC
:1002F000F894EC91611148C040954E234C938FBF08
:100300000895809180008F7DE8CF80918000877F65
:10031000E4CF84B58F7784BDE2CF84B58F7DFBCFEA
:100320008091B0008F778093B000D9CF8091B000DA
:100330008F7DF9CF809190008F7780939000CFCF01
:10034000809190008F7DF9CF80919000877FF5CFCD
:100350008091A0008F778093A000C1CF8091A000F2
:100360008F7DF9CF8091A000877FF5CF809120010C
:100370008F7780932001B3CF809120018F7DF9CFBB
:1003800080912001877FF5CF4E2BB8CFFF920F933E
:100390001F93CF93DF93082F162FF42EC22FD8E090
:1003A0006C2FF11015C06170802F0E943A01C69524
:1003B00061E0812F0E943A0160E0812F0E943A01A2
:1003C000D15071F7DF91CF911F910F91FF90089558
:1003D000661F6627661F802F0E943A01CC0FE8CF68
:1003E000CF93DF9390E0FC01EE55FE4F2491845AA9
:1003F0009E4FFC0184918823C9F090E0880F991FDB
:10040000FC01E85DFE4FA591B491FC01EE5BFE4F4F
:10041000C591D49161110DC09FB7F8948C9120952E
:1004200082238C938881282328839FBFDF91CF91DB
:100430000895623051F49FB7F8943C91822F8095D3
:1004400083238C93E8812E2BEFCF8FB7F894EC9118
:100450002E2B2C938FBFEACF863308F08653209142
:100460007B00982F9870277F922B90937B0087704A
:10047000806480937C0080917A00806480937A000D
:1004800080917A0086FDFCCF809178009091790070
:1004900008951F920F920FB60F9211242F933F933E
:1004A0008F939F93AF93BF9380910F02909110020F
:1004B000A0911102B091120230910E0223E0230F9D
:1004C0002D3758F50196A11DB11D20930E02809382
:1004D0000F0290931002A0931102B0931202809128
:1004E0000A0290910B02A0910C02B0910D020196AC
:1004F000A11DB11D80930A0290930B02A0930C02E0
:10050000B0930D02BF91AF919F918F913F912F9129
:100510000F900FBE0F901F90189526E8230F02969C
:10052000A11DB11DD2CF4F925F926F927F92AF9279
:10053000BF92CF92DF92EF92FF920F931F93CF93D0
:10054000DF93CDB7DEB729013A019B01AC01241935
:100550003509460957098A899B89AC89BD89BC013F
:10056000CD016A197B098C099D090E943305A801F8
:10057000970124193509460957090E94D804CA0170
:10058000B9016A0D7B1D8C1D9D1DDF91CF911F91BF
:100590000F91FF90EF90DF90CF90BF90AF907F9042
:1005A0006F905F904F90089560E087E30E94F001A4
:1005B00060E088E30E94F00160E081E10E94F001C8
:1005C00060E082E10E94F00160E083E10E94F001BE
:1005D00060E088E20E94F00160E08AE20E94F0019F
:1005E00061E084E10E94F00160E084E10E943A0150
:1005F00060E08AE10E94F00161E08BE00E94F0017E
:1006000061E087E00E94F00161E086E00E94F00175
:1006100061E086E10E94F00161E087E10E94F00163
:1006200061E088E10E94F00161E089E10E94F0014F
:10063000E1EAF0E08081887F816080831092900001
:100640008BE08093910089EF90E0909399008093E4
:10065000980082E080937100089560E086E10E9436
:100660003A0120E041E068E189E10E94C60120E012
:1006700041E068E189E10E94C60161E086E10E94F3
:100680003A0160E087E10E943A0120E041E068E140
:1006900089E10E94C60161E087E10C943A01CF93A1
:1006A000DF9300D000D000D01F92CDB7DEB72AE094
:1006B000E0E0F2E0DE01119601900D922A95E1F75B
:1006C000880F991FE1E0F0E0EC0FFD1FE80FF91F24
:1006D000808191812A960FB6F894DEBF0FBECDBF00
:1006E000DF91CF910895CF93C82F60E087E10E94FA
:1006F0003A012C2F41E068E189E10E94C60161E0E6
:1007000087E1CF910C943A01AF92BF92CF92DF92E2
:10071000EF92FF920F931F93BC01990F880B990BD7
:100720001F921F921F9223E02F93A12CB12C6501E1
:10073000EE24EA9413E0F12E00E010E020E030E037
:10074000A9010E9493020F900F900F900F90CB0180
:100750001F910F91FF90EF90DF90CF90BF90AF90DF
:1007600008958091170290911802019797FD14C087
:1007700090931802809317028091170290911802AB
:100780000E944F03982F9F7080911B02807F892BBE
:1007900080931B020C94730383E090E0E9CF809177
:1007A000170290911802019684309105A4F4909359
:1007B00018028093170280911702909118020E94EC
:1007C0004F03982F9F7080911B02807F892B80930D
:1007D0001B020C9473031092180210921702EBCFB5
:1007E0001F920F920FB60F9211240BB60F922F93F8
:1007F0003F934F935F936F937F938F939F93AF93A9
:10080000BF93EF93FF93809115029091160286306B
:10081000910508F501969093160280931502809138
:100820001302909114020196909314028093130284
:10083000FF91EF91BF91AF919F918F917F916F91B8
:100840005F914F913F912F910F900BBE0F900FBE74
:100850000F901F901895109216021092150288E3BF
:100860000E942C0290931A0280931902D8CF0E9402
:10087000D4020E942D0388E30E942C0290931A0256
:100880008093190208958091190290911A020E9492
:10089000840320911302309114022F31310560F04E
:1008A0001092140210921302009711F40C94B103E9
:1008B000029711F40C94CF030895789484B5826064
:1008C00084BD84B5816084BD85B5826085BD85B5F4
:1008D000816085BD80916E00816080936E00109272
:1008E00081008091810082608093810080918100ED
:1008F000816080938100809180008160809380007E
:100900008091B10084608093B1008091B0008160DB
:100910008093B000809191008260809391008091DB
:10092000910081608093910080919000816080931C
:1009300090008091A10082608093A1008091A1002D
:1009400081608093A1008091A00081608093A000CD
:100950008091210182608093210180912101816039
:1009600080932101809120018160809320018091FA
:100970007A00846080937A0080917A00826080930C
:100980007A0080917A00816080937A0080917A0069
:10099000806880937A001092C1000E943704C0E002
:1009A000D0E00E9443042097E1F30E940000F9CFB9
:1009B000052E97FB1EF400940E94EF0457FD07D00C
:1009C0000E94020507FC03D04EF40C94EF045095EE
:1009D0004095309521953F4F4F4F5F4F089590952B
:1009E0008095709561957F4F8F4F9F4F08950E941E
:1009F0002405A59F900DB49F900DA49F800D911D7F
:100A000011240895A1E21A2EAA1BBB1BFD010DC0E3
:100A1000AA1FBB1FEE1FFF1FA217B307E407F507AE
:100A200020F0A21BB30BE40BF50B661F771F881F8A
:100A3000991F1A9469F760957095809590959B0120
:100A4000AC01BD01CF010895A29FB001B39FC001C9
:100A5000A39F700D811D1124911DB29F700D811DEA
:100A60001124911D0895DB018F939F930E94F70439
:100A7000BF91AF91A29F800D911DA39F900DB29F3A
:100A8000900D11240895EE0FFF1F881F8BBF079054
:0A0A9000F691E02D1994F894FFCFC1
:0A0A9A0009000C0006000300000034
:00000001FF
