:100000000C9417010C9438010C9438010C943801AD
:100010000C9438010C9438010C9438010C9438017C
:100020000C9438010C9438010C9438010C9438016C
:100030000C9438010C9438010C9438010C9438015C
:100040000C9438010C9438010C9438010C9438014C
:100050000C9438010C9438010C9438010C9434023F
:100060000C9438010C9438010C9438010C9438012C
:100070000C9438010C9438010C9438010C9438011C
:100080000C947E020C9438010C9438010C943801C5
:100090000C9438010C9438010C9438010C943801FC
:1000A0000C9438010C9438010C9438010C943801EC
:1000B0000C9438010C9438010C9438010C943801DC
:1000C0000C9438010C9438010C9438010C943801CC
:1000D0000C9438010C9438010C9438010C943801BC
:1000E0000C9438010C94AC010C94B6010C94D20120
:1000F0000C9480010C949B010C949F010C94D601EC
:100100000C94BA010C9485010C9497010C94A601EF
:100110000C94C8010C94A3010C94BE010C94B00182
:100120000C94CC010C94C401000021002400270091
:100130002A002D00300033000101000004010701F6
:100140000A0100002200250028002B002E003100AB
:10015000340002010000050108010B010505050539
:10016000070508080808020202020A0A080804042F
:10017000040401010101010101010303030303035D
:100180000303040707070C0C0C0C0C0C0C0C0202EC
:10019000020206060606060606060B0B0B0B0B0BE9
:1001A0000B0B010210202008081020401020408076
:1001B000020102010804020101020408102040802B
:1001C00080402010080402018004020180402010B9
:1001D0000804020108040201010204081020408002
:1001E000010204081020408000000A0B02090C0DD7
:1001F0000E080703040100000000000000000000DA
:1002000000000000000000000000000000000000EE
:1002100000000000121110000000000000000000AB
:100220000000000000000000000000000000112499
:100230001FBECFEFD1E2DEBFCDBF00E00CBF12E0AA
:10024000A0E0B2E0EEEFF8E000E00BBF02C00790E4
:100250000D92AA30B107D9F722E0AAE0B2E001C0BE
:100260001D92AD31B207E1F70E94C4020C947D04E7
:100270000C94000080917B00877F80937B0082E458
:1002800080937C0080917A00806480937A008091D2
:100290007A0086FDFCCF80917800909179000895D6
:1002A000282F30E0F901E851FE4F9491F901EE5505
:1002B000FE4F4491245A3E4FF9012491222309F420
:1002C00035C0992311F191509231F8F4E92FF0E003
:1002D0008827E259FE4F8F4F0C946E049F01A301B3
:1002E000800197019B018501A601AC01B001B60117
:1002F000BA01BE01C401C8018501CC01D201D601F9
:10030000809180008F7780938000E22FF0E0EE0FE5
:10031000FF1FEE5BFE4FA591B4918FB7F894EC915F
:10032000611148C040954E234C938FBF0895809132
:1003300080008F7DE8CF80918000877FE4CF84B5F7
:100340008F7784BDE2CF84B58F7DFBCF8091B000E5
:100350008F778093B000D9CF8091B0008F7DF9CF97
:10036000809190008F7780939000CFCF8091900004
:100370008F7DF9CF80919000877FF5CF8091A0008D
:100380008F778093A000C1CF8091A0008F7DF9CF9F
:100390008091A000877FF5CF809120018F77809397
:1003A0002001B3CF809120018F7DF9CF8091200172
:1003B000877FF5CF4E2BB8CFCF93DF9390E0FC0132
:1003C000EE55FE4F2491845A9E4FFC018491882360
:1003D000D1F090E0880F991FFC01E85DFE4FA591D8
:1003E000B491FC01EE5BFE4FC591D49161110EC03A
:1003F0009FB7F8948C91E22FE0958E238C932881FF
:10040000E223E8839FBFDF91CF9108958FB7F894DF
:10041000EC91E22BEC938FBFF6CFCF93DF93D82FE5
:10042000C8E06D2F661F6627661F89E10E94500194
:10043000DD0F61E088E10E94500160E088E10E94E8
:100440005001C15071F7DF91CF910895CF93C82F1C
:1004500060E087E10E9450018C2F0E940D0261E054
:1004600087E1CF910C9450011F920F920FB60F921B
:1004700011242F933F938F939F93AF93BF938091BA
:10048000190290911A02A0911B02B0911C023091A6
:10049000180223E0230F2D3758F50196A11DB11D39
:1004A000209318028093190290931A02A0931B02C2
:1004B000B0931C028091140290911502A091160233
:1004C000B09117020196A11DB11D80931402909363
:1004D0001502A0931602B0931702BF91AF919F919E
:1004E0008F913F912F910F900FBE0F901F901895F5
:1004F00026E8230F0296A11DB11DD2CF1F920F92A5
:100500000FB60F9211240BB60F922F933F934F9378
:100510005F936F937F938F939F93AF93BF93EF936B
:10052000FF9380910A0290910B028630910508F5A5
:10053000019690930B0280930A0280911002909191
:10054000110201969093110280931002FF91EF9196
:10055000BF91AF919F918F917F916F915F914F91DB
:100560003F912F910F900BBE0F900FBE0F901F90D9
:10057000189510920B0210920A020E943A01909371
:10058000130280931202D9CFCF93DF9300D000D013
:1005900000D01F92CDB7DEB7789484B5826084BD59
:1005A00084B5816084BD85B5826085BD85B5816077
:1005B00085BD80916E00816080936E0010928100F5
:1005C00080918100826080938100809181008160B0
:1005D0008093810080918000816080938000809171
:1005E000B10084608093B1008091B00081608093FD
:1005F000B000809191008260809391008091910081
:100600008160809391008091900081608093900040
:100610008091A10082608093A1008091A1008160FF
:100620008093A1008091A00081608093A0008091C0
:10063000210182608093210180912101816080935A
:1006400021018091200181608093200180917A00B6
:10065000846080937A0080917A00826080937A002F
:1006600080917A00816080937A0080917A0080681E
:1006700080937A001092C10060E087E30E94DC0161
:1006800060E088E30E94DC0160E081E10E94DC011F
:1006900060E082E10E94DC0160E083E10E94DC0115
:1006A00060E088E20E94DC0160E08AE20E94DC01F6
:1006B00061E084E10E94DC0160E084E10E9450017D
:1006C00060E08AE10E94DC0161E08BE00E94DC01D5
:1006D00061E087E00E94DC0161E086E00E94DC01CD
:1006E00061E086E10E94DC0161E087E10E94DC01BB
:1006F00061E088E10E94DC0161E089E10E94DC01A7
:100700008091A100887F81608093A1001092900069
:100710008BE08093910089EF90E090939900809313
:10072000980082E08093710060E086E10E945001B1
:1007300080E00E940D0280E00E940D0261E086E1EF
:100740000E94500160E087E10E94500180E00E9419
:100750000D0261E087E10E9450010E943A019093EE
:1007600013028093120288248A9433E0932EA12CE2
:10077000B12C00E010E043E0E42EF12C8091100257
:10078000909111024F9708F442C0A0911202B091CB
:10079000130223E030E00E947604A50194010E9438
:1007A0001E04109211021092100221153105B1F5AC
:1007B00080910E0290910F02019797FD05C09093D2
:1007C0000F0280930E0204C0F0920F02E0920E021C
:1007D00080910E0290910F022AE0E0E0F2E0DE014B
:1007E000119601900D922A95E1F7880F991FE1E08B
:1007F000F0E0EC0FFD1FE80FF91F90819F708091D2
:100800000C02807F892B80930C020E942602011526
:10081000110509F4B3CF0E940000B0CF223031059A
:10082000B1F780910E0290910F02019684309105EC
:1008300034F210920F0210920E02CACF052E97FBCF
:100840001EF400940E94350457FD07D00E943D0419
:1008500007FC03D04EF40C94350450954095309528
:1008600021953F4F4F4F5F4F08959095809570951C
:1008700061957F4F8F4F9F4F0895A1E21A2EAA1BBB
:10088000BB1BFD010DC0AA1FBB1FEE1FFF1FA21740
:10089000B307E407F50720F0A21BB30BE40BF50B3D
:1008A000661F771F881F991F1A9469F760957095C6
:1008B000809590959B01AC01BD01CF010895A29F49
:1008C000B001B39FC001A39F700D811D1124911D24
:1008D000B29F700D811D1124911D0895EE0FFF1F11
:1008E000881F8BBF0790F691E02D19940E945F043A
:0E08F000B7FF0895821B930B0895F894FFCF75
:0A08FE0009000C00060003000000D2
:00000001FF
