:100000000C9417010C942B010C942B010C942B01D4
:100010000C942B010C942B010C942B010C942B01B0
:100020000C942B010C942B010C942B010C942B01A0
:100030000C942B010C942B010C942B010C942B0190
:100040000C942B010C942B010C942B010C942B0180
:100050000C942B010C942B010C942B010C94FC019F
:100060000C942B010C942B010C942B010C942B0160
:100070000C942B010C942B010C942B010C942B0150
:100080000C9446020C942B010C942B010C942B0124
:100090000C942B010C942B010C942B010C942B0130
:1000A0000C942B010C942B010C942B010C942B0120
:1000B0000C942B010C942B010C942B010C942B0110
:1000C0000C942B010C942B010C942B010C942B0100
:1000D0000C942B010C942B010C942B010C942B01F0
:1000E0000C942B010C94AF010C949B010C94800197
:1000F0000C9497010C9489010C9483010C94740165
:100100000C9462010C9493010C94A5010C94A90128
:100110000C9478010C94A1010C947C010C948D0139
:100120000C945D010C94B301000021002400270011
:100130002A002D00300033000101000004010701F6
:100140000A0100002200250028002B002E003100AB
:10015000340002010000050108010B010505050539
:10016000070508080808020202020A0A080804042F
:10017000040401010101010101010303030303035D
:100180000303040707070C0C0C0C0C0C0C0C0202EC
:10019000020206060606060606060B0B0B0B0B0BE9
:1001A0000B0B010210202008081020401020408076
:1001B000020102010804020101020408102040802B
:1001C00080402010080402018004020180402010B9
:1001D0000804020108040201010204081020408002
:1001E000010204081020408000000A0B02090C0DD7
:1001F0000E080703040100000000000000000000DA
:1002000000000000000000000000000000000000EE
:1002100000000000121110000000000000000000AB
:100220000000000000000000000000000000112499
:100230001FBECFEFD1E2DEBFCDBF00E00CBF22E09A
:10024000A0E0B2E001C01D92AB30B207E1F70E941E
:1002500065020C9452030C940000282F30E0F90141
:10026000E851FE4F9491F901EE55FE4F4491245A06
:100270003E4FF9012491222309F435C0992311F14D
:1002800091509231F8F4E92FF0E08827E55BFE4FBA
:100290008F4F0C944A037C0180015D017401780149
:1002A0006201830189018D01930197019B01A101E5
:1002B000A5016201A901AF01B301809180008F7790
:1002C00080938000E22FF0E0EE0FFF1FEE5BFE4F09
:1002D000A591B4918FB7F894EC91611148C0409505
:1002E0004E234C938FBF0895809180008F7DE8CF7F
:1002F00080918000877FE4CF84B58F7784BDE2CF83
:1003000084B58F7DFBCF8091B0008F778093B00054
:10031000D9CF8091B0008F7DF9CF809190008F77F9
:1003200080939000CFCF809190008F7DF9CF809106
:100330009000877FF5CF8091A0008F778093A000F9
:10034000C1CF8091A0008F7DF9CF8091A000877FE1
:10035000F5CF809120018F7780932001B3CF8091DA
:1003600020018F7DF9CF80912001877FF5CF4E2B23
:10037000B8CFCF93DF9390E0FC01EE55FE4F249170
:10038000845A9E4FFC0184918823D1F090E0880F1D
:10039000991FFC01E85DFE4FA591B491FC01EE5B55
:1003A000FE4FC591D49161110EC09FB7F8948C9106
:1003B000E22FE0958E238C932881E223E8839FBF70
:1003C000DF91CF9108958FB7F894EC91E22BEC93E5
:1003D0008FBFF6CFCF93C8E060E089E10E942D0186
:1003E00061E088E10E942D0160E088E10E942D011A
:1003F000C15091F7CF9108951F920F920FB60F92AF
:1004000011242F933F938F939F93AF93BF9380912A
:10041000070290910802A0910902B0910A0230915E
:10042000060223E0230F2D3758F50196A11DB11DBB
:10043000209306028093070290930802A09309027A
:10044000B0930A028091020290910302A0910402EB
:10045000B09105020196A11DB11D809302029093F7
:100460000302A0930402B0930502BF91AF919F9144
:100470008F913F912F910F900FBE0F901F90189565
:1004800026E8230F0296A11DB11DD2CF1F920F9215
:100490000FB60F9211248F939F9380910002909139
:1004A00001028630910560F40196909301028093D9
:1004B00000029F918F910F900FBE0F901F90189583
:1004C0001092010210920002F4CF789484B58260F9
:1004D00084BD84B5816084BD85B5826085BD85B5E8
:1004E000816085BD80916E00816080936E00109266
:1004F00081008091810082608093810080918100E1
:100500008160809381008091800081608093800071
:100510008091B10084608093B1008091B0008160CF
:100520008093B000809191008260809391008091CF
:100530009100816080939100809190008160809310
:1005400090008091A10082608093A1008091A10021
:1005500081608093A1008091A00081608093A000C1
:10056000809121018260809321018091210181602D
:1005700080932101809120018160809320018091EE
:100580007A00846080937A0080917A008260809300
:100590007A0080917A00816080937A0080917A005D
:1005A000806880937A001092C10060E087E30E9427
:1005B000B90160E088E30E94B90160E081E10E9436
:1005C000B90160E082E10E94B90160E083E10E942C
:1005D000B90160E088E20E94B90160E08AE20E940D
:1005E000B90161E084E10E94B90160E084E10E9408
:1005F0002D0160E08AE10E94B90161E08BE00E9478
:10060000B90161E087E00E94B90161E086E00E94E3
:10061000B90161E086E10E94B90161E087E10E94D1
:10062000B90161E088E10E94B90161E089E10E94BD
:10063000B9018091A100887F81608093A100109210
:1006400090008BE08093910089EF90E09093990067
:100650008093980082E08093710060E086E10E94C0
:100660002D010E94EA010E94EA0161E086E10E94F8
:100670002D0160E087E10E942D010E94EA0161E006
:1006800087E10E942D01C0E0D0E02097F1F30E94A5
:100690000000FBCFEE0FFF1F881F8BBF0790F69166
:0806A000E02D1994F894FFCF3E
:00000001FF
